:020000040800F2
:10000000200E0024AD020008398E0008117400088B
:10001000318E000881230008999400080000000038
:1000200000000000000000000000000069910008CE
:10003000C927000800000000418E000871910008E7
:10004000CB020008CB020008CB020008CB0200085C
:10005000CB020008CB020008CB020008CB0200084C
:10006000CB020008CB020008CB020008CB0200083C
:1000700089230008CB020008CB020008CB0200084D
:10008000CB020008CB02000861230008CB02000865
:10009000CB020008CB020008CB020008CB0200080C
:1000A000CB020008CB020008CB020008CB020008FC
:1000B000CB020008CB020008CB020008CB020008EC
:1000C000CB020008CB020008CB020008CB020008DC
:1000D000CB020008CB020008CB020008CB020008CC
:1000E000CB020008CB02000800000000CB02000891
:1000F000CB020008CB020008CB020008CB020008AC
:10010000CB020008CB020008CB020008CB0200089B
:10011000CB020008CB020008CB020008CB0200088B
:10012000CB020008CB020008CB020008CB0200087B
:10013000CB020008CB020008CB020008CB0200086B
:1001400000000000000000000000000000000000AF
:10015000CB020008CB020008CB020008CB0200084B
:10016000CB020008CB020008CB020008CB0200083B
:10017000CB020008CB020008CB0200080000000000
:10018000CB020008CB020008CB020008CB0200081B
:10019000CB020008CB020008CB020008CB0200080B
:1001A000CB020008CB020008CB020008CB020008FB
:1001B000CB020008CB020008CB020008CB020008EB
:1001C000CB020008CB020008CB020008CB020008DB
:1001D000CB020008CB020008CB020008CB020008CB
:1001E000CB020008CB020008CB020008CB020008BB
:1001F000CB020008CB020008CB020008CB020008AB
:10020000CB020008CB020008CB020008CB0200089A
:10021000CB020008CB020008CB020008CB0200088A
:10022000CB020008CB020008CB020008000000004F
:10023000CB020008CB02000800000000CB0200083F
:10024000CB020008CB020008CB020008CB0200085A
:10025000CB020008CB020008CB020008CB0200084A
:10026000CB020008CB020008CB020008CB0200083A
:10027000CB020008CB020008CB02000800000000FF
:10028000CB020008CB020008CB02000800000000EF
:1002900000000000CB020008DFF80CD000F02EFABE
:1002A0000048004721960008200E00240748804798
:1002B0000748804707480047FEE7FEE7FEE7FEE7FE
:1002C000FEE7FEE7FEE7FEE7FEE7FEE7D9270008C8
:1002D0005992000899020008D2B201E000F8012BFF
:1002E000491EFBD270470022F6E710B513460A46B6
:1002F00004461946FFF7F0FF204610BD30B50B4607
:10030000014600202022012409E021FA02F59D4245
:1003100005D303FA02F5491B04FA02F52844151E19
:10032000A2F10102F1DC30BD2DE9F05F05460020AD
:1003300092469B4688460646814640241BE0284656
:1003400041464746224600F000FA53465A46C01A34
:10035000914110D311461846224600F0E7F92D1AB4
:1003600067EB01084F4622460120002100F0DEF92C
:1003700017EB00094E41201EA4F10104DFDC4846C2
:1003800031462A464346BDE8F09F2DE9FE4F8046A0
:1003900081EA0300C00F0C46009021F0004123F0D9
:1003A0000045B8EB0200A94105D2404621469046DF
:1003B0001C460B46024623F00040104347D0270D51
:1003C000C7F30A00C3F30A510290401A0190402873
:1003D0006BDAC3F3130040F4801B0098924620B1FF
:1003E0000023D2EB030A63EB0B0B01985946C0F1D3
:1003F0004002504600F09AF906460D4650465946CE
:10040000019A00F0B2F910EB08006141002487EA7C
:10041000115284EAE7731A4340D0009A62B3019AFA
:10042000012A4FEA075215DC001B61EB02014FF075
:10043000004202EA0752CDE90042001C41F580115A
:1004400032462B4600F0B2F903B0BDE8F08F4046CB
:100450002146F9E7001B61EB0201001C41F5801306
:1004600000185B412018A2F5001747EB030140EA92
:10047000D570B6196D4111E06D084FEA360645EAB0
:10048000C0754FEA0752001B61EB0201001C41F5E9
:10049000801149084FEA30000019514132462B467D
:1004A00003B0BDE8F04F00F072B90098012240009F
:1004B0000023D0EB020263EBE073009821464FEA81
:1004C000E074B8EB000061EB0401E9E783F000435E
:1004D0005BE781F0004158E72DE9FE4F81EA030414
:1004E00004F0004421F0004100944FF0000B23F091
:1004F000004350EA01045ED052EA03045BD0C3F328
:100500000A54C1F30A552C44A4F2F3340194A0FB1D
:100510000254C1F3130141F48011C3F3130343F4F4
:10052000801301FB024400FB034E840A970A44EA4D
:10053000815447EA8357A4FB076802958D0A05FB9F
:1005400007854FEA932C04FB0C542705029D4FEAC4
:10055000065847EA1637B5EB08056EEB070C870E11
:10056000920E47EA811742EA8312A7FB0201B6EB1B
:100570000B0164EB00042B0D43EA0C335E1844EBD3
:100580001C50DA465146E7FB0201C5F313044FEA5B
:100590000B3343EA14534FEA0432019C43EA060347
:1005A000A4F10C040294009CCDE900B400F0FEF824
:1005B00003B0BDE8F08F00200146F9E72DE9F04DCA
:1005C00081EA030404F0004B21F0004514464FF08B
:1005D000000A23F0004150EA050220D054EA01024B
:1005E0001DD0C5F30A570246C5F31303C1F3130028
:1005F000C1F30A5640F4801543F48013A7EB0608B4
:10060000101BD64608F2FD3873EB050002D308F143
:10061000010801E092185B41B8F1000F03DA0020F5
:100620000146BDE8F08D00204FF480110646844657
:100630000EE0171B73EB050705D3121B63EB0503D5
:1006400006434CEA010C49084FEA300092185B411E
:1006500050EA0107EDD152EA030012D082EA040009
:1006600083EA0501084305D0101BAB4106D20122E5
:10067000002306E000224FF0004302E06FF0010289
:1006800053101AEB06004CEB085110EB0A0041EB3B
:100690000B01BDE8F04D00F07AB8C1F30A52C1F386
:1006A000130140F2FF3341F480119A4202DA002034
:1006B0000146704740F233439A42A2F2334202DCD1
:1006C000524200F042B800F031B8000030B5041ECC
:1006D00071F1000404DB4FF00044404264EB01017F
:1006E000141E73F1000405DB1C464FF00043524218
:1006F00063EB0403994208BF904230BD1CB5094822
:100700000090094801900546009C06E0E06840F032
:10071000010394E8070098471034AC42F6D3FFF782
:10072000BFFD0000BCA30008DCA30008202A04DBF6
:10073000203A00FA02F1002070479140C2F12003F4
:1007400020FA03F3194390407047202A04DB203A33
:1007500021FA02F00021704721FA02F3D040C2F1E1
:1007600020029140084319467047202A06DBCB1728
:10077000203A41FA02F043EAE07306E041FA02F35C
:10078000D040C2F12002914008431946704710B58D
:10079000141E73F1000408DA401C41F100019218A4
:1007A0005B411A4301D120F0010010BD2DE9F04D4D
:1007B00092469B4611B1B1FA81F202E0B0FA80F2A2
:1007C00020329046FFF7B2FF04460F4640EA0A0087
:1007D00041EA0B0153465A46084313D0114653EAE7
:1007E000010019D0C8F140025046FFF7AEFF0546A0
:1007F0000E46504659464246FFF798FF084305D03B
:10080000012004E020463946BDE8F08D0020054374
:1008100046EAE0762C4337430A986305E40AA0EBE6
:1008200008000022FD0A44EA47540A3002D500209D
:100830000146E9E7010510196941DDE9084500199C
:100840006941BDE8F04DA2E7B0B50446006842F248
:10085000001140F48070C4F20201884218D142F2C3
:100860000830C4F20200006810F4403F18D005F0D0
:100870001BFD61680546B1F5803F05D0B1F5403FED
:100880002CD0B1F5003F2AD1080CB5FBF0F526E0DD
:1008900046F20830C5F60200006810F4403FE6D189
:1008A0004FF40020002104F073FC61680546A1F5B7
:1008B00080224FEAB2420A2A11D8DFE802F0070785
:1008C0000707070755535951570000BF6FF0010044
:1008D00000EA5140B5FBF0F501E000BFAD0804F0BF
:1008E0008FF941F2030188420ED8206842F6015187
:1008F000C0F231118D4281682CBF41F4807121F426
:1009000080718160B0BD00BF4BF62140C0F2BE00D7
:10091000854205D82068816821F440718160B0BDAE
:1009200047F64100C0F27D10854207D820680122B9
:10093000816862F309218160B0BD00BF20684FF279
:100940008101C0F2FA218D42816805D8022262F34A
:1009500009218160B0BD00BF41F440718160B0BD2C
:10096000ED09BCE76D09BAE72D09B8E72D0AB6E72E
:10097000AD09B4E7000000000146806B426D12F043
:10098000500F426D06D0D20610D4C06CC26C08461F
:10099000104700BF42F40071416501680A68120700
:1009A000CA6805D4910709D002F00EBB02F0A8BBBB
:1009B00012F4406FF8D1C9688904F5D4416D21F46F
:1009C00080714165416DC904EED4416D41F0010172
:1009D000416502F0F9BA0000806B416D41F04001C1
:1009E0004165816D41F00401816502F089BB000021
:1009F000806B02F081BB0000B0B5016804468A68D4
:100A00008868C0074FF0000031D012F0020218BF12
:100A1000B0BD886800F00D0001281FD14FF6C072EC
:100A20008868C7F6FF7210400230886003200860B3
:100A300004F0EEF821688968C90701D10020B0BD33
:100A4000054602E08068C007F8D004F0E1F8401BDA
:100A500003282068F6D38168C907F3D0606D40F0A1
:100A600010006065A06D40F00100A0650120B0BDE0
:100A70002DE9F04F81B02DED108B9EB040F2580063
:100A800048F6890BC2F20040C8F6880B40F2000914
:100A9000D0F80480C2F2004908F1080A08F10902FE
:100AA000A8FB0B1008F10101A1FB0B7608F10B0C60
:100AB000030A370A3F011B01A7EB162708F10206BC
:100AC000A3EB1020A6FB0B3508F10303A1EB4711A4
:100AD000A3FB0B741591290A0901270AA1EB152123
:100AE0003F01A7EB142708F10404A6EB4111149170
:100AF000A4FB0B15A3EB471108F105031391290A79
:100B0000A3FB0B67090108F10606A1EB15213D0ABD
:100B10002D01A5EB1725A4EB41111091A6FB0B1499
:100B2000A3EB451108F107031291210AA3FB0B5710
:100B3000090140F2B845A1EB1421C2F200453C0A7C
:100B40002401A4EB172740F2F804A6EB41110F9102
:100B5000AAFB0B16A3EB4711A8EB4017A2FB0BE077
:100B6000330AC2F200441B011191A3EB1626D9F8F7
:100B70000030010A24F817301B0C25F81730090142
:100B8000159BA1EB1020D9F80410AAEB461A08F126
:100B90000A0624F81310090C25F81310A2EB4010D4
:100BA0001590A6FB0B30149B139FD9E902124FEA54
:100BB000114E24F81310110C25F813E0030A24F841
:100BC00017201A01A2EB102E109A25F81710D9F849
:100BD0001010ACFB0B70D9F8143024F81210090C6B
:100BE00025F81210129A190CD9F81C70A6EB4E1B9E
:100BF000D9F8206024F81230030A25F812101901E0
:100C0000A1EB10200F9AD9F81810ACEB40101490FB
:100C100048F689000B0C24F81210C8F6880025F855
:100C2000123008F10C02A2FB00031198390C4FEAB4
:100C3000164C25F81010190A090124F81070A1EBC0
:100C40001321D9F8287025F81AC048F6890C380CF9
:100C50001290A2EB411008F10D01C8F6880C159B0B
:100C600024F81A60D9F824601390A1FB0CA04FEA75
:100C7000164E24F8136025F813E0030A1B01D9F877
:100C80002C20A3EB102E08F10E03A3FB0C60129E88
:100C900025F81B60149E4FEA124A24F81B70A1EB42
:100CA0004E1ED9F8307024F81620020A120125F8D9
:100CB00016A0A2EB102008F10F024FEA174BD9F84B
:100CC0003460A3EB4010A2FB0C31139B4FEA164C8F
:100CD00024F813700F0A24F81E603E01D9F838700A
:100CE00025F813B0A6EB112125F81EC03B0C25F802
:100CF000103040F25803A2EB4111C2F2004324F835
:100D00001070D9F83C0024F811001A78000C25F86E
:100D1000110040F2500008F11001012AC2F2004017
:100D2000596009D1B7EE000A90ED001AB4EE401AEE
:100D3000F1EE10FA00F0FA814FF07E5101600020D0
:100D40000021F0224FF4A0734CF2186700260096A1
:100D500006F046FE4AF2883B04249FED798AC0F6ED
:100D6000000B16AD42F204184FF0000938E000BF46
:100D700000209F21EF229F23009706F031FE0020E4
:100D8000A021EF22A02300974FF0A00A06F028FE32
:100D90000020A121EF22A123009706F021FE00EE02
:100DA000104A082128465A46B8EEC00A20EE080A22
:100DB000BDEEC00A10EE103A08F030FDAAF10600B0
:100DC0004CF2186381B20220002200922A4606F0FB
:100DD000A3FB09F10109013CB9F1090F00F0A8805A
:100DE000002CC5D009EB890002224FEAC00A00207E
:100DF0001FFA8AF6CDF800803146334606F0F0FD42
:100E00000C200E2231463346CDF8008006F0E8FD76
:100E100018201A2231463346CDF8008006F0E0FD56
:100E20002420262231463346CDF8008006F0D8FD36
:100E30003020322231463346CDF8008006F0D0FD16
:100E40003C203E2231463346CDF8008006F0C8FDF6
:100E500048204A2231463346CDF8008006F0C0FDD6
:100E60005420562231463346CDF8008006F0B8FDB6
:100E70006020622231463346CDF8008006F0B0FD96
:100E80006C206E2231463346CDF8008006F0A8FD76
:100E900078207A2231463346CDF8008006F0A0FD56
:100EA0008420862231463346CDF8008006F098FD36
:100EB0009020922231463346CDF8008006F090FD16
:100EC0009C209E2231463346CDF8008006F088FDF6
:100ED000A820AA2231463346CDF8008006F080FDD6
:100EE000B420B62231463346CDF8008006F078FDB6
:100EF000C020C22231463346CDF8008006F070FD96
:100F0000CC20CE2231463346CDF8008006F068FD75
:100F1000D820DA2231463346CDF8008006F060FD55
:100F2000E420E622CDF800803146334635E700BFA5
:100F300040F25808002542F20416C2F200481EE0B2
:100F400000007A4477200021772240F23F13009777
:100F500006F046FD78200021782240F23F130097EA
:100F600006F03EFD79200021792240F23F130097E0
:100F700006F036FD1835B5F5847F00F0D280782D67
:100F8000E0D02C46EF2D28BFEF240021022320467D
:100F90002246009606F024FD0C210E232046224610
:100FA000009606F01DFD18211A23204622460096C1
:100FB00006F016FD2421262320462246009606F040
:100FC0000FFD3021322320462246009606F008FD10
:100FD0003C213E2320462246009606F001FD482192
:100FE0004A2320462246009606F0FAFC5421562356
:100FF00020462246009606F0F3FC6021622320463C
:101000002246009606F0ECFC6C216E232046224618
:10101000009606F0E5FC78217A23204622460096C9
:1010200006F0DEFC8421862320462246009606F048
:10103000D7FC9021922320462246009606F0D0FC51
:101040009C219E2320462246009606F0C9FCA8213A
:10105000AA2320462246009606F0C2FCB421B623FD
:1010600020462246009606F0BBFCC021C223204643
:101070002246009606F0B4FCCC21CE232046224620
:10108000009606F0ADFCD821DA23204622460096D1
:1010900006F0A6FCE421E62320462246009606F050
:1010A0009FFCF021F22320462246009606F098FC91
:1010B000FC21FE2320462246009606F091FC4FF4C8
:1010C00084714FF4857320462246009606F088FC12
:1010D0004FF48A714FF48B7320462246009606F037
:1010E0007FFC4FF490714FF4917320462246009696
:1010F00006F076FC4FF496714FF497732046224623
:10110000009606F06DFC4FF49C714FF49D730096B1
:101110002046224606F064FC1835B5F5847F7FF43E
:101120002EAFD8F80410012088F80000F020F02934
:1011300015914FF0F00238BF084600214FF4A0731C
:10114000149000200027009706F04AFC4AF28839E4
:1011500004261FED858AC0F6000916AD6FF0050460
:101160004FF0000A0AEB8A0842F2041B4FEAC8005B
:10117000002E08BF46F20C3B87B2002002223946FF
:101180003B46CDF800B006F02BFC0C200E22394671
:101190003B46CDF800B006F023FC18201A22394651
:1011A0003B46CDF800B006F01BFC24202622394631
:1011B0003B46CDF800B006F013FC30203222394611
:1011C0003B46CDF800B006F00BFC3C203E223946F1
:1011D0003B46CDF800B006F003FC48204A223946D1
:1011E0003B46CDF800B006F0FBFB542056223946B2
:1011F0003B46CDF800B006F0F3FB60206222394692
:101200003B46CDF800B006F0EBFB6C206E22394671
:101210003B46CDF800B006F0E3FB78207A22394651
:101220003B46CDF800B006F0DBFB84208622394631
:101230003B46CDF800B006F0D3FB90209222394611
:101240003B46CDF800B006F0CBFB9C209E223946F1
:101250003B46CDF800B006F0C3FBA820AA223946D1
:101260003B46CDF800B006F0BBFBB420B6223946B1
:101270003B46CDF800B006F0B3FBC020C222394691
:101280003B46CDF800B006F0ABFBCC20CE22394671
:101290003B46CDF800B006F0A3FBD820DA22394651
:1012A0003B46CDF800B006F09BFBE420E622394631
:1012B0003B46CDF800B006F093FB00EE106A082123
:1012C00028464A46B8EEC00A20EE080ABDEEC00A1B
:1012D00010EE103A08F0A2FA04EBC80048F21043EE
:1012E00081B20220002200922A4606F015F90AF186
:1012F000010A013EBAF1090F7FF434AF002500BFA7
:101300002C46EF2D28BFEF2442F20417782D08BF9A
:1013100046F20C370021022320462246009706F0B1
:101320005FFB0C210E2320462246009706F058FB57
:1013300018211A2320462246009706F051FB24214B
:10134000262320462246009706F04AFB302132230E
:1013500020462246009706F043FB3C213E232046D0
:101360002246009706F03CFB48214A2320462246AD
:10137000009706F035FB542156232046224600975D
:1013800006F02EFB6021622320462246009706F0DD
:1013900027FB6C216E2320462246009706F020FB97
:1013A00078217A2320462246009706F019FB8421F3
:1013B000862320462246009706F012FB90219223B6
:1013C00020462246009706F00BFB9C219E232046D8
:1013D0002246009706F004FBA821AA2320462246B5
:1013E000009706F0FDFAB421B62320462246009766
:1013F00006F0F6FAC021C22320462246009706F0E6
:10140000EFFACC21CE2320462246009706F0E8FAD8
:10141000D821DA2320462246009706F0E1FAE4219B
:10142000E62320462246009706F0DAFAF021F2235E
:1014300020462246009706F0D3FAFC21FE232046E0
:101440002246009706F0CCFA4FF484714FF485736E
:1014500020462246009706F0C3FA4FF48A714FF4F3
:101460008B7320462246009706F0BAFA4FF490712B
:101470004FF4917320462246009706F0B1FA4FF4DC
:1014800096714FF4977320462246009706F0A8FA0B
:101490004FF49C714FF49D7320462246009706F04E
:1014A0009FFA1835B5F5847F7FF42AAF1598002789
:1014B000EF284FF6E07388BFA0F1F00740F2F80084
:1014C000149EC2F20040394632464FF6E0754FF0A6
:1014D000000907F0E5FF40F2B84047F6FF73C2F29B
:1014E00000403946324607F0DBFF40F258084AF622
:1014F000AB21C2F20048CAF6AA21D8F80800013090
:10150000A0FB01125108D8F8182001EB4101401A44
:10151000511CC8F808008807C8F8181040F0318638
:10152000F120002140F23F124FF4A07340F6410B2E
:10153000CDF800B006F054FAF020002144F2082261
:10154000F02705F069FFF020082144F2082205F099
:1015500063FFF020102144F2082205F05DFFF02027
:10156000182144F2082205F057FFF020202144F210
:10157000082205F051FFF020282144F2082205F04E
:101580004BFFF020302144F2082205F045FFF02007
:10159000382144F2082205F03FFFF020402144F2B8
:1015A000082205F039FFF020482144F2082205F016
:1015B00033FFF020502144F2082205F02DFFF020E7
:1015C000582144F2082205F027FFF020602144F260
:1015D000082205F021FFF020682144F2082205F0DE
:1015E0001BFFF020702144F2082205F015FFF020C7
:1015F000782144F2082205F00FFFF020802144F208
:10160000082205F009FFF020882144F2082205F0A5
:1016100003FFF020902144F2082205F0FDFEF020A7
:10162000982144F2082205F0F7FEF020A02144F2B0
:10163000082205F0F1FEF020A82144F2082205F06E
:10164000EBFEF020B02144F2082205F0E5FEF02088
:10165000B82144F2082205F0DFFEF020C02144F258
:10166000082205F0D9FEF020C82144F2082205F036
:10167000D3FEF020D02144F2082205F0CDFEF02068
:10168000D82144F2082205F0C7FEF020E02144F200
:10169000082205F0C1FEF020E82144F2082205F0FE
:1016A000BBFEF020F02144F2082205F0B5FEF02048
:1016B000F82144F2082205F0AFFEF0204FF48071CB
:1016C00044F2082205F0A8FEF0204FF4847144F2A1
:1016D000082205F0A1FEF0204FF4887144F20822A0
:1016E00005F09AFEF0204FF48C7144F2082205F0C8
:1016F00093FEF0204FF4907144F2082205F08CFE26
:10170000F0204FF4947144F2082205F085FEF02099
:101710004FF4987144F2082205F07EFEF0204FF459
:101720009C7144F2082205F077FE05F11F000FF6C8
:10173000143283B2F4200421CDF800B005F0ECFEA1
:1017400045F24F4016AEC0F24800179046F64300EF
:101750001021C4F23A201690F42047F6FF73324667
:10176000CDF800B005F0D8FEB7EE000B0FF6E4227E
:10177000202130468DED000B08F050F8F4201C219C
:1017800047F6FF733246CDF800B005F0C5FE0FF600
:10179000CC220FF6D0232021304608F03FF8F42069
:1017A000282147F6FF733246CDF800B005F0B4FEAD
:1017B000B3EE040B0FF6B822202130468DED000B5E
:1017C00008F02CF8F420342147F6FF733246CDF8A8
:1017D00000B005F0A1FE98ED050A0FF6A022B7EEC5
:1017E000C00A202130468DED000B08F017F8F420D8
:1017F00040214FF6E0733246CDF800B005F08CFE84
:10180000D8F804A0BAF1F00038BF48469FED5E9BBF
:10181000824515901ED9BAF1F00F48F2010E38BF7B
:101820005746CFF6FF7EBAF1040F07F0030C4FF0D6
:1018300000001390CDF820E0CDE906C71CD24FF090
:10184000FF30129047F6FF791599BCF1000F40F078
:101850003E81BCE19FED4ECA9FED4EDAB0EE4CFAF0
:101860009FED4DBAF0EE4D8A9FED4CAA9FED4C0ACC
:101870009FED4CEAECE300BF4FEA4A0007F0FC02A0
:101880000E9240F2F802A0EB4700C2F20042131899
:10189000CDF814A0981D0C90AAEB0700191D0B9110
:1018A000811C00F1030C9A1E0992421E14920A46F2
:1018B00000F1010847F6FF79DDF854A000250D93EB
:1018C000991C0A914FF0FF30129012E0139212907F
:1018D0000435119A0E980AF1040A0CF1040C043232
:1018E000A842149808F1040800F10400149000F0D4
:1018F000DF8048F689064FF64047C8F68806CFF6DF
:10190000FF77AAFB06340D9861461192230A03FB68
:101910000703ACFB0640159C109004EB050BA2FBE3
:10192000067033F91530A8FB06C70F909945A8BF7C
:1019300099469E45D8BF9E46A34535D9002B139A9C
:1019400033D414988C46A0FB06464FF64044CFF69D
:10195000FF740998360A06FB0406129836F91560DA
:10196000B6F1FF3F23DC0026ABEB0004002858460D
:10197000C8BF0126022C4FF00004C8BF0124264036
:10198000324414E000BF00BF00000000000000006F
:101990000040CEBD0040CE3D33335339000000003F
:1019A000000000383333D3B8139A12988C464FF6A0
:1019B00040463F0ACFF6FF760A9907FB061737F92C
:1019C0001570B945A8BFB946BE45D8BFBE46159EDD
:1019D000B34514D3002F12D4B3F1FF3F0FDCABEBB0
:1019E0000006002301360028C8BF0123022E4FF055
:1019F0000006C8BF01260BF1010033401A440F99BD
:101A00004FF640460B0ACFF6FF760B990BF1020416
:101A100003FB061333F915309945A8BF99469E4537
:101A2000D8BF9E46159EB44213D9002B11D4B7F1EE
:101A3000FF3F0EDCABEB0006002702360028C8BFD4
:101A40000127022E4FF00006C8BF0126204637406E
:101A50003A4410994FF640460F0ACFF6FF760C9C99
:101A600007FB06470BF1030437F91570B945A8BF0A
:101A7000B946BE45D8BFBE46159EB4427FF626AFD6
:101A8000002F3FF523AFB3F1FF3F3FF71FAFABEBA5
:101A90000007002303370028C8BF0123022F4FF09F
:101AA0000007C8BF012720463B401A440EE700BF8D
:101AB000159940F258082944C2F2004840F6410BFB
:101AC000079FDDE905ACBCF1000F00F0808048F60F
:101AD0008903C8F68803A1FB03373B0A1B01A3EB6C
:101AE0001723A1EB431740F2F803C2F2004333F986
:101AF00017309945A8BF99469E45D8BF9E46159E6A
:101B0000B14226D9002B24D448F689064B1EC8F6CC
:101B10008806A3FB06652E0A3601A6EB1526A3EB65
:101B2000461340F2F806C2F2004636F91330B3F11C
:101B3000FF3F0EDC1298002300260D1A0028C8BFB4
:101B40000126022DC8BF0123139A33401A44CDE960
:101B50001212BCF1010F39D048F689064B1CC8F6A9
:101B60008806A3FB06652E0A3601A6EB152640F271
:101B7000F805C2F20045A3EB461635F91650A94503
:101B8000A8BFA946AE45D8BFAE46159CA14219D301
:101B9000002D17D440F2F805C2F2004535F9177050
:101BA000B7F1FF3F0EDC1298002700251C1A002811
:101BB000C8BF0125022CC8BF0127139A2F403A4401
:101BC000CDE91232BCF1020F40F00083079F1FFAEB
:101BD00089F11FFA8EF000EE101A01EE100A139927
:101BE00015980129B8EE402ABFEE000AB8EE413A36
:101BF0001FED951AAAEB00000EDD04EE100A05EEAB
:101C0000101AB8EE444AB8EE455A84EE054A9FEDE4
:101C10009B5A85EE04AA01E01FEDA0AAB0EE404A4F
:101C200040F2B849C2F20049BAF1040F4FF0000582
:101C3000099002EE014AB0EE402A03EE012A9FED20
:101C4000903A0DD24FF0FF3447F6FF7E159824EE00
:101C500003BABCF1000F22EE034A40F02B81C4E12D
:101C60004FEA4A0007F0FC01A0EB4700109109EB96
:101C700000024FF0FF34901D0E90AAEB070048F2CF
:101C80000107C51C111D0D9100F1020C911E0A9156
:101C9000411E1491911C0C9100F1010B47F6FF7E3F
:101CA000DDF854900021CFF6FF774FF0000A0F9235
:101CB00011E000BF139D0431109809F104090435A7
:101CC0000CF1040C884214980BF1040B00F1040091
:101CD000149000F0D78048F689060F9BC8F6880656
:101CE0001395A9FB0602100A4FF64042CFF6FF7289
:101CF00000FB0230A5FB0623159A129302EB0108A4
:101D000030F91130ACFB06501190ABFB06059E4537
:101D1000A8BF9E469F42D8BF1F4690452ED9002B94
:101D20002CD448F68900149AC8F68800CDF82CA067
:101D3000A2FB000A4FF64042CFF6FF720A9E4FEA1E
:101D40001A2000FB026030F91100B0F1FF3F03DD03
:101D5000DDF82CA012E000BF002C4FF00000A8EB33
:101D60000404C8BF0120022C4FF00004C8BF0124A6
:101D7000DDF82CA020404446824400BF4FF640428C
:101D8000280ACFF6FF720C9D00FB025030F911506B
:101D9000AE45A8BFAE46AF42D8BF2F461598804586
:101DA00014D3002D12D4B3F1FF3F0FDCA8EB0403D2
:101DB00000200133002CC8BF0120022B4FF000038C
:101DC000C8BF012308F10104184082441198000A99
:101DD0000D9B00FB023008F1020330F9110086452B
:101DE000A8BF86468742D8BF0746159EB34215D97D
:101DF000002813D4B5F1FF3F10DC002CA8EB04043D
:101E00004FF0000504F10204C8BF0125022C4FF079
:101E10000004C8BF012425401C46AA44129A130A94
:101E20004FF64042CFF6FF720E9D03FB025333F98B
:101E3000115008F10303AE45A8BFAE46AF42D8BF6C
:101E40002F46159EB3427FF635AF002D3FF532AFDA
:101E5000B0F1FF3F139D3FF72EAFA8EB0402002027
:101E60000332002CC8BF0120022A4FF00002C8BF75
:101E700001221C46104082441DE700BF0000A04321
:101E800033335340159840F2580840F2B84955464C
:101E90000844C2F2004840F6410BC2F20049DDF8A6
:101EA00018C0089724EE03BABCF1000F22EE034AD3
:101EB00000F09B8048F68901C8F68801A0FB01125A
:101EC000110A0901A1EB1221A0EB411139F91120EE
:101ED0009645A8BF9646089B9342D8BF13460893E1
:101EE000159B98421FD9002A1DD448F68903421E2B
:101EF000C8F68803A2FB0336330A1B01A3EB1623A3
:101F0000A2EB431239F91220B2F1FF3F0BDC0022A1
:101F10000023061B002CC8BF0123022E0446C8BFA5
:101F200001221A401544BCF1010F5ED048F6890227
:101F3000431CC8F68802A3FB0226320A1201A2EB58
:101F40001622A3EB421239F91260B645A8BFB64675
:101F5000089FB742D8BF37460897159FB84214D399
:101F6000002E12D439F91110B1F1FF3F0DDC002120
:101F7000002C4FF00006A3EB0404C8BF0126022C7E
:101F80001C46C8BF012131400D44BCF1020F2CD0CA
:101F900048F689010230C8F68801A0FB0113190A2E
:101FA0000901A1EB1321A0EB411139F911108E4564
:101FB000A8BF8E46089B8B42D8BF0B460893159B43
:101FC000984212D9002910D439F91210B1F1FF3F0B
:101FD0000BDC00210022001B002CC8BF01220228BC
:101FE000C8BF012102EA010005441FFA8EF0B0EEDD
:101FF000407A05EE100A089880B22BEE08FA06EE39
:10200000100A92EE03BAB8EE455A012D64EE088A22
:10201000B8EE466A05EE017A06EE010A27EE03EAFB
:1020200020EE031A2EEE08CA21EE08DA10DD099818
:1020300002EE105A01EE100AB8EE422AB8EE411A2A
:1020400081EE021A9FED902A82EE011AB7EEC19A34
:102050009FED8E1A8EA2F4204E214FF6E073A0EE73
:1020600001EACDF800B005F057FA4AF2B03516ACE7
:10207000C0F60005B7EECA0A202120462A468DED9B
:10208000000B07F0CBFBF4205A214FF4FC632246EF
:10209000CDF800B005F040FA2BEE080A4AF2A4365B
:1020A000C0F60006202120463246B7EEC00A8DED6C
:1020B000000B07F0B3FBF42066214FF4FC632246CB
:1020C000CDF800B005F028FA4AF28E37B7EECF0A05
:1020D000C0F60007B7EEE81A202120463A468DEDFB
:1020E000000B8DED021B07F099FBF420722148F2E2
:1020F00010432246CDF800B005F00EFA68A2F42095
:10210000802147F6FF73CDF800B005F005FA2021D5
:1021100020462A468DED009B07F080FBF4208C21A1
:102120004FF4FC632246CDF800B005F0F5F92EEE31
:10213000480A202120463246B7EEC00A8DED000B3A
:1021400007F06CFBF42098214FF4FC632246CDF895
:1021500000B005F0E1F9B7EECC0A2021B7EECD1AB8
:1021600020463A468DED000B8DED021B07F056FB25
:10217000F420A42148F210432246CDF800B005F027
:10218000CBF9D8F80C000130C8F80C0002F040FD83
:10219000D8F81010411ACA087C2A10D998ED030A01
:1021A00001EE101AB8EE400A0021C8E90310B8EE9B
:1021B000411A20EE080A80EE010A88ED050A1EB0D9
:1021C000BDEC108B01B0BDE8F08F00BF48F689036D
:1021D0000231C8F68803A1FB03373B0A1B01A3EBBE
:1021E000172340F2F807C2F20047A1EB431337F977
:1021F00013309945A8BF99469E45D8BF9E46159F66
:10220000B9427FF6E3AC002B079F3FF5E0AC40F20C
:10221000F803C2F2004333F91630B3F1FF3F3FF742
:10222000D6AC129800230027091A0028C8BF01273E
:102230000229C8BF0123139A07EA0301079F0A4432
:102240001392C4E42D2D2D2053434F5045202D2DA6
:102250002D000000563A252E34675600543A257357
:1022600000000000302E32732F64697600000000F9
:10227000526174653A252E3066487A004650533ACA
:1022800025352E31660000000000A043333353C0D3
:102290002D2D20434831284D45415329202D2D0017
:1022A0002D2D20434832284D45415329202D2D0006
:1022B000F0B581B0044600688168C9074AD14FF67D
:1022C000C0778168C7F6FF7707F17F0211420BD014
:1022D000606D40F010006065A06D40F00100A065E9
:1022E000012001B0F0BD00BF8168394041F001011B
:1022F000816002F08DFC42F2000246F20836C4F220
:102300000202216802F5807302F54275C5F60206E5
:10231000994208BF2E46914208BF2E469942054673
:10232000306814D110F01F0014D110E08868C00785
:1023300004D18868384040F00100886002F068FCF1
:10234000401B2168032802D30868C007C0D0086872
:10235000C007EBD0002001B0F0BD0000000000007D
:1023600080B540F67800C2F2004000F0CDFE40F6A5
:10237000DC00C2F20040BDE8804000F0C5BE0000B5
:10238000FEE700000000000040F28000C2F20040C2
:1023900001F00ABA0000000040F20F42D0F800C07D
:1023A000C4F20202944511DC6F22C4F20202944589
:1023B00022DC3F22C4F20202944539DC1022C4F22E
:1023C000020294455AD0282254E000BF40F26F42E6
:1023D000C4F2020294451BDC40F23F42C4F2020206
:1023E00094452DDC40F21042C4F20202944545D0DF
:1023F00040F228423EE000BF9F22C4F20202944510
:1024000028DC7022C4F20202944537D0882231E0E1
:1024100040F29F42C4F20202944523DC40F2704233
:10242000C4F20202944529D040F2884222E000BF63
:102430004022C4F20202944520D058221AE000BF84
:1024400040F24042C4F20202944517D040F2584292
:1024500010E000BFA022C4F2020294450ED0B822C0
:1024600008E000BF40F2B842C4F20202944505D031
:1024700040F2A042C4F20202944517D10CF0F802D7
:102480004AF6AB23103ACAF6AA23A2FB03310AA3E9
:102490005F2AC1F302115B5C40F2FF312CEA0101BB
:1024A000C36588BF04318165084670472CF0FF0181
:1024B00081650846704700BF00061016000610161A
:1024C00070B540F26F44D0F800C0C4F20204D0F8F6
:1024D00058E0A4451ADC9F25C4F20205AC4533DC64
:1024E0005725C4F20205AC455ADC1025C4F202059A
:1024F000AC4500F098802825C4F20205AC4500F0F8
:1025000092804025C4F202058AE000BF45F22F45C3
:10251000C5F60205AC452DDC40F2B745C4F2020514
:10252000AC454BDC40F27045C4F20205AC457AD0B4
:1025300040F28845C4F20205AC4574D040F2A04593
:10254000C4F202056CE000BF40F22745C4F2020568
:10255000AC4543DCA025C4F20205AC4563D0B825E8
:10256000C4F20205AC455ED040F21045C4F202054B
:1025700056E000BF45F26B45C5F60205AC453FDCB1
:1025800045F23045C5F60205AC454CD045F2444510
:10259000C5F60205AC4546D045F258453EE000BFC1
:1025A0005825C4F20205AC453DD07025C4F20205A1
:1025B000AC4538D08825C4F2020531E040F2B84578
:1025C000C4F20205AC452ED045F20845C5F6020519
:1025D000AC4528D045F21C4520E000BF40F228451C
:1025E000C4F20205AC451ED040F24045C4F20205DB
:1025F000AC4518D040F25845C4F2020510E000BFC7
:1026000045F26C45C5F60205AC450CD045F2944543
:10261000C5F60205AC4506D045F28045C5F6020573
:10262000AC4540F0D080456EC66E002E866E6E6062
:102630001CBFD0E91C566E60A44515DC9F24C4F273
:102640000204A4452CDC5724C4F20204A44551DC46
:102650001024C4F20204A4457AD02824C4F202044F
:10266000A44575D040246FE045F22F44C5F602041E
:10267000A44529DC40F2B744C4F20204A44545DC79
:1026800040F27044C4F20204A44561D040F2884490
:10269000C4F20204A4455BD040F2A04454E000BF61
:1026A00040F22744C4F20204A4453FDCA024C4F253
:1026B0000204A4454CD0B824C4F20204A44547D077
:1026C00040F2104440E000BF45F26B44C5F60204FE
:1026D000A44555DC45F23044C5F60204A44561D05A
:1026E00045F24444C5F60204A4455BD045F2584483
:1026F00054E000BF5824C4F20204A44528D070243A
:10270000C4F20204A44523D088241DE040F2B8445A
:10271000C4F20204A4451BD045F20844C5F60204E5
:10272000A4453FD045F21C4438E000BF40F22844A5
:10273000C4F20204A4450BD040F24044C4F20204A7
:10274000A44505D040F25844C4F20204A4453AD14D
:102750008468C06D00F01F003F2505FA00F0CEF838
:102760000800DCF80000402C20F48020CCF80000A9
:10277000CCF8043023D1CCF80820CCF80C1070BD74
:1027800045F26C44C5F60204A4450BD045F28044E2
:10279000C5F60204A44505D045F29444C5F60204EA
:1027A000A44510D1C46D012504F01F04806805FA0A
:1027B00004F4CEF804404028CCF80430DBD0CCF848
:1027C0000810CCF80C2070BD70470000000000001D
:1027D00072B600BFFEE7000044F60400C5F6020032
:1027E000816841F0020181600168890409D40168AF
:1027F00089045CBF01685FEA814102D401688904F1
:10280000F2D570470000000070B582B0002301933C
:10281000044690F85000012802D1022002B070BD99
:10282000012084F8500020460E461546FEF7E4F8D5
:10283000616D18B141F010014CE000BF41F202128D
:102840004FF6C0739143C3F6FE7302316165216890
:1028500006F4803605F080458A682E4413404FF216
:10286000FF72C2F2C352334403F100438B608B68A2
:10287000B3F1FF3F2ADC019B01330193019B93429B
:102880001DD88B68B3F1FF3F20DC019B013301931E
:10289000019B934213D88B68B3F1FF3F16DC019B79
:1028A00001330193019B934209D88B68B3F1FF3F39
:1028B0000CDC019B01330193019B9342D7D9606DDE
:1028C00040F0100020F00201012003E0616D0122C0
:1028D00062F301016165002184F8501002B070BDFF
:1028E000704700000000000070470000000000007A
:1028F000704700000000000070470000000000006A
:10290000704700000000000090F85020012A01D11B
:102910000220704710B582B042F2083400230193C0
:10292000C4F202040093A4F542720368934227D1D3
:102930004FF6006ECFF6FF7E54F80E209B681A43C8
:1029400052071DD4D1F800C02268BCF1000F22F458
:10295000404323D04A681A4322604FF60052CFF614
:10296000FF72A25854F80E301A43D20726D12268BB
:1029700040F61F739A438968114341EA0C011CE039
:10298000416D41F0200141650121002280F8502075
:1029900002B0BDE810400846704700BF4FF6005136
:1029A0002360CFF6FF71615854F80E201143C90718
:1029B00004D1216840F61F72914321600021E4E7B1
:1029C000F0B599B003689F687F0703D490F8507002
:1029D000012F03D1022019B0F0BD00BF42F2001652
:1029E0000127C4F2020680F85070B34214D0A6F555
:1029F00080750027AB424FF000031597169708BF6C
:102A0000334600934ED0416D41F02001416580F87E
:102A10005070012019B0F0BD0D4614460746FFF76F
:102A200047FC002849D13A68F86C796D40F601738B
:102A3000994340F6791C40F6F11301F580717965F0
:102A40000021B965C0F6000CC0F60003B242C0E92F
:102A50000FC340F6D913C0F60003C3644FF01C0344
:102A6000136087F85010516841F01001516029D06F
:102A7000A6F5807346F20C31C5F602019A422A4649
:102A8000234608BF06F5037101F0D2FD39684FF601
:102A9000C073C7F6FF738A681A4004328A6019B09F
:102AA000F0BD00BF0D4614460746FFF701FC20B9F4
:102AB0006846FFF7FDFB0028B5D0002187F85010CD
:102AC00019B0F0BD02F140012A46234601F0B0FDE5
:102AD00019B0F0BD00000000F0B581B000220092F6
:102AE00090F85020012A03D10221084601B0F0BD20
:102AF0000768012380F85030BB685B0700F19681BE
:102B00000C684FF6FF7CB4F1FF3FC0F20F0C4FEAA8
:102B100094630FDD94FAA4F214EA0C0FB2FA82F275
:102B200008BFA20E012402F01F0204FA02F2FC699F
:102B30002243FA614A681F2603F01F03C2F30124EF
:102B400002F01F02964007EB840403FA02F2256BA1
:102B500025EA060632432263BA68BB6802F0040223
:102B600003F00803D21840F096800A6807258E68A3
:102B7000C2F34063C2F3045207EB830395405C69E0
:102B800006FA02F224EA05052A435A6141F20002DC
:102B9000C5F60042126802F07042B2F1805F33D194
:102BA0004A69FB680E2606EA530302FA03F30C692E
:102BB000042C39D007F160020E6806F0F84652F88E
:102BC0002450334305F000452B4342F824300B6971
:102BD0004E7E52F82350012E25F0004508BF05F126
:102BE000004542F823500A7E0B693E69013A03F022
:102BF0001F03B2FA82F226F4F0465209D2029A403A
:102C000032433A6147E000BFFA684B69FE68D2067A
:102C10004FEA560402D404F00E0201E004F0080268
:102C200093400C69042CC5D13A6E0B6802F0F8424F
:102C30009B069A4218D13A6E22F000423A667A6EAA
:102C400002F0F8429A4214D0BA6E02F0F8429A4268
:102C500018D1BA6E22F00042BA66FA6E02F0F8425B
:102C60009A4214D017E000BF7A6E02F0F8429A42FE
:102C7000EAD17A6E22F000427A66BA6E02F0F84229
:102C80009A42E6D0FA6E02F0F8429A4203D1FA6E06
:102C900022F00042FA66BA68D20779D1D1F800E092
:102CA0000023C968D7F8C0200EEA0C04C4F252739E
:102CB000A24301F018042CFA04F603F52D0506EAE8
:102CC0000E06A94246EA0201C7F8C0105DD142F2E1
:102CD0000011C4F202018F4226D042F20001C4F278
:102CE00002018F423CD11F21C1F2F0418E4540F3D9
:102CF000C38040F2FF71C2F630618E4540F3A98077
:102D000040F60001C2F630618E4500F0478141F285
:102D10000001C3F260218E4500F036810021C4F22B
:102D200021318E451DD045E11F21C1F2F0418E4574
:102D300000F388800721C0F690418E4500F3AA80F9
:102D40000221C0F230418E4500F0A1800421C0F67E
:102D500060018E4540F02E814023C1F6201300E033
:102D6000002393FAA3F143F6C132B1FA81F1C0F224
:102D70000A0213424FF0010208BF990E01F01F0131
:102D800002FA01F1FA691143F961BEF1FF3F01DD79
:102D9000002150E042F2000146F2083CC4F2020178
:102DA000C5F6020C01F5807201F542739742624646
:102DB00008BF1A468F4242F2001408BF1A4647F471
:102DC0008073C4F20204A342136827D18A68D1F841
:102DD00008111143C90729D1002103F0E074CCF692
:102DE00084318E4508BF13F4000163D00021CCF27A
:102DF00052718E4540F0A0800021B1EB146F40F07D
:102E00009B80ACF542718F42C2D1DCF8001021F0FA
:102E1000E071214341F08071A5E000BF4FF6005101
:102E2000CFF6FF715CF80110C907D5D0416D41F0B4
:102E3000200141650121002280F85020084601B0A0
:102E4000F0BD00BF40F2FF71C2F630618E4500F365
:102E50008F802021C1F2F0418E4500F0A58040F224
:102E60000041C2F600218E4540F0A48040F60003E8
:102E7000C2F6306375E700BF0721C0F690418E456A
:102E800008DC0221C0F230418E457FF45FAF0123A0
:102E900067E700BF0821C0F690418E457AD0102127
:102EA000C1F2C0018E4540F0858040F20013C2F2AD
:102EB000801356E7ACF542718F427FF469AFDCF8BE
:102EC000001042F6635221F0E071C0F23E522143FD
:102ED00041F40001CCF8001040F24801C2F2004178
:102EE00009688909A1FB02129109022202EB410142
:102EF0000091009900293FF44BAF009901390091EE
:102F0000009900293FF444AF0099013900910099DC
:102F100000293FF43DAF0099013900910099002943
:102F20003FF436AF009901390091009900294FF024
:102F30000001E2D17FE700BFACF542718F424FF054
:102F400000017FF478AF0022CCF6B872964508BF36
:102F500013F480027FF46FAFDCF8001021F0E07111
:102F6000214341F48001CCF80010002163E700BF49
:102F700040F60001C2F630618E450FD041F20001EB
:102F8000C3F260218E4515D142F20003C3F2906373
:102F9000E7E600BF8023C1F65053E2E641F20003AA
:102FA000C3F26023DDE600BF40F20023C2F2B0535B
:102FB000D7E600BF00210023C4F684318E4504BF4C
:102FC0000023C4F6B873CCE642F200010068C4F2F4
:102FD0000201884218BF704780B54EF65C7140F21E
:102FE0000000CEF20001C2F20040BFF34F8F086034
:102FF00000F120020A60BFEE001ABFF34F8FBFF34B
:103000006F8FD0E9001293B24FEA124E13FA81FC8F
:103010008368C2680EEB114E1CFA83FC01690EEB4B
:10302000134E43691CFA82FCB0EE414A0EEB124E7D
:1030300082691CFA81FC9FED2D3A0EEB114EC1699D
:103040001CFA83FC0EEB13431CFA82FC03EB124EBA
:10305000026A1CFA81F30EEB114C416A13FA82F3F7
:103060000CEB124C826A13FA81F30CEB114CC16A1F
:1030700013FA82F30CEB124C026B13FA81F30CEB94
:10308000114C416B13FA82F30CEB124C826B13FA66
:1030900081F3C06B0CEB114113FA82F301EB124187
:1030A00013FA80F201EB1040C2F30F11C0F30F10BE
:1030B00000EE101A02EE100A40F27400C2F2004054
:1030C000B8EE400AB8EE422A00EE034A9FED080A25
:1030D00002EE031A24EE002A21EE000A80ED002AF7
:1030E00080ED010ABDE88040704700BF0000003855
:1030F0003333534000000000704700000000000020
:1031000070470000000000002DE9F04F81B0044638
:1031100042F2000046F20831C4F20200C5F6020194
:10312000276800F5807A00F54279574508BF49467F
:10313000874208BF49463E687D68B207D1F80080E3
:103140000FD515F002010CD0606DC00603D4606D80
:1031500040F4006060652046FFF7C2FB276802214B
:103160003960710708F01F0B02D515F0040104D176
:10317000310755D515F0080152D0214651F8542F8A
:10318000D20603D40A6842F400720A60FA6812F4A4
:10319000406F3FD1BBFA8BF2ABF10503B3FA83F377
:1031A00052095B09384642EA030CABF10903B3FA52
:1031B00083F342F20002C4F20202574508BF1046F0
:1031C0005B0943EA0C02D207024618BF3A46B842EE
:1031D00008BF0246D26892041CD43A68120719D577
:1031E000BA6852070CD47A6822F00C027A60086838
:1031F00020F4807008600868C00407D50AE000BFAA
:10320000606D04F1580140F010006065086840F0FE
:10321000010008602046FFF7D7FE27680C213960BF
:10322000B10602D515F0200104D171062CD515F098
:10323000400129D0214651F8542FD20603D40A6800
:1032400042F400520A6042F200023846C4F202021E
:10325000574508BF104608F01E030246062B08BF5C
:103260003A46BBF1000F08BF3A46B84208BF0246D3
:10327000F86C10F4C07FFB68D26879D02046FFF765
:1032800033FB27686020386030060CD515F08000CD
:1032900009D0606D40F480306065204600F0C8F9C8
:1032A000276880203860F0050DD515F480700AD0AD
:1032B000606D40F4003060652046FFF71DFB276815
:1032C0004FF480703860B0050DD515F400700AD049
:1032D000606D40F4802060652046FFF711FB276891
:1032E0004FF400703860F00627D515F0100024D098
:1032F000206BA0B1BBF1000F5CD046F2083042F267
:103300000001C5F60200574508BF4846C4F2020155
:103310008F4208BF4846006810F4404F0BD0606DE4
:1033200040F480606065A06D40F00200A06520461A
:10333000FFF7E6FE276810203860700514D515F4F5
:10334000806011D0606D40F480406065A06D40F0F9
:103350000800A0654FF480603860204601B0BDE8E9
:10336000F04FFFF7C5BA00BF01B0BDE8F08F00BF56
:10337000900106D503F4406002F40053C0187FF4B6
:103380007DAF386840067FF579AF12F400107FF406
:1033900075AFB868000711D4786820F060007860D5
:1033A000086820F4805008600868C0053FF566AFE3
:1033B0000AE000BFF8688007B1D1BCE7606D04F196
:1033C000580140F010006065086840F00100086096
:1033D00054E700000000000070B582B004460028E9
:1033E0004FF0000001902DD0606D30B9204600F004
:1033F00023F90020A06584F85000206881688900C6
:103400004FF6C071C5F6FF7102D582680A4082602E
:103410008268D20031D4826801F18051114042F6B5
:10342000635241F08051816040F24801C0F23E5247
:10343000C2F2004109688909A1FB0212012101EBD6
:10344000921105E00126304602B070BD01990139A4
:103450000191019989B1019901390191019961B1F4
:10346000019901390191019900291FBF0199013981
:103470000191019918BF0029E8D18168C90009D4D8
:10348000616D012641F010016165A16D41F00101FE
:10349000A16500E000268168626D02F0100201F073
:1034A00004018918616D40F0918021F4817102312D
:1034B00061658168C90728D142F2001240F4807129
:1034C000C4F20202914242F20001C4F2020140F051
:1034D000A5808A68D1F808311A43D20715D101F5C1
:1034E000807201F5427346F2080C9042C5F6020C58
:1034F0001A4618BF0CF54072884208BF1A46606829
:10350000116821F47C110843106001F079FB41F24D
:10351000030100228842A068A0F1100188BF0122A7
:10352000B1FA81F1237F49091140226B617D154673
:1035300016BF4D034A031C20012B45EA034141EA13
:10354000020141EA000106D1206A0022CFF6FE7294
:1035500002EB40400143606A20B100F47870A26A37
:103560001043014320684CF20303CFF6F073C268A6
:103570001A401143C1608168826801F0040102F0C1
:103580000802891836D1217D44F20305E26AC36836
:1035900042EA813123EA05021143C16094F83810F0
:1035A000012901691AD14FF61E020125CFF600420A
:1035B000CFF6FF751140D4E90F231943636C05EB77
:1035C00002421143A26C1943114309E041F010007B
:1035D00001266065304602B070BD00BF21F00101D8
:1035E00001610169626B21F0704111430161204664
:1035F000FDF72AF92068E1680129026B22F00F012A
:1036000002D1A269013A114301630121606D61F3A6
:1036100001006065304602B070BD00BF46F208028E
:10362000C5F602021268D2073FF459AF6DE70000F9
:103630007047000000000000F0B587B042F20013B0
:103640000168C4F20203002299420692CDE90422E5
:10365000CDE9022258D042F20002C4F202029142A5
:1036600040F09D8040F27C050446C2F2004544F2E1
:10367000E040C5F602002968002901F10101296036
:103680000BD150F8081C41F0200140F8081C50F8FC
:10369000081C01F02001019101990168002641F008
:1036A00002010160006802A900F002000190019887
:1036B0000320CDE9020040F200400496C5F6020066
:1036C00001F0A2F928462821C4F2020140F8041FA3
:1036D0000921C0E90116C6604FF4806101614FF411
:1036E000805141614FF4804181614FF48071C0E9A4
:1036F0000716466200F06CFC08B1FFF769F8281D58
:10370000E064EC6343E000BF40F27C0144F2E0403F
:10371000C2F20041C5F602000A68002A02F1010265
:103720000A600BD150F8081C41F0200140F8081C39
:1037300050F8081C01F0200101910199016840F244
:10374000004441F0010101600168C5F6020401F086
:10375000010101910199016841F0020101600068D5
:1037600002AD00F002000190019830200290A4F513
:1037700080602946032603960027049701F044F948
:1037800020462946CDE90266049701F03DF9122052
:103790000021002201F0D4FA122001F0BDFA07B096
:1037A000F0BD0000000000002DE9F04782B00021CC
:1037B000019140F2480148F2B513C2F20041C1F64E
:1037C0004E33856D40F26F490A680168C4F2020900
:1037D0002E68A2FB032849452A6815DC9F22C4F203
:1037E000020291422CDC5722C4F20202914251DCC7
:1037F0001022C4F2020291427BD02822C4F20202BB
:10380000914276D040226FE045F22F43C5F6020385
:10381000994229DC40F2B743C4F20203994245DCE5
:1038200040F27042C4F20202914262D040F28842F9
:10383000C4F2020291425CD040F2A04254E000BFC8
:1038400040F22742C4F2020291423FDCA022C4F2BD
:10385000020291424DD0B822C4F20202914248D0F5
:1038600040F2104240E000BF45F26B43C5F6020350
:10387000994275DC45F23043C5F60203994200F0E7
:10388000828045F24443C5F6020399427BD045F25B
:10389000584373E05822C4F20202914229D07022A8
:1038A000C4F20202914224D088221DE040F2B843C3
:1038B000C4F2020399421CD045F20843C5F6020344
:1038C000994260D045F21C4358E000BF40F22842C4
:1038D000C4F2020291420CD040F24042C4F2020211
:1038E000914206D040F25842C4F20202914240F0A6
:1038F0005383C26D082302F01F0240F20F4A934027
:10390000C4F2020A334200F0DE8051454FF0040455
:1039100012DC6F27C4F20207B9426DDC3F27C4F204
:103920000207B94200F39C801027C4F20207B94293
:1039300000F0BD802827B5E0494569DC40F23F47EB
:10394000C4F20207B94200F3938040F21047C4F278
:103950000207B94200F0AB8040F22847A2E000BF66
:1039600045F26C43C5F6020399420CD045F2804300
:10397000C5F60203994206D045F29443C5F6020308
:10398000994240F009830B68C76D07F01F070426B2
:10399000BE40164218BF13F0040423D10226BE40D5
:1039A000164218BF13F0020442D1FA40120740F148
:1039B000F38213F0080200F0EF820A6822F00E0290
:1039C0000A60012101FA07F26A60416580F835104A
:1039D000C16C00294FF0000280F8342040F0D882FA
:1039E000DAE200BF1A046E6034D49A0635D40A684D
:1039F00022F004020A6030E09F27C4F20207B942B5
:103A000040DC7027C4F20207B94250D0882749E051
:103A100040F29F47C4F20207B9423BDC40F27047D4
:103A2000C4F20207B94242D040F288473AE000BFF0
:103A30001A046E6000F1B4829A0600F1B5820A6839
:103A400022F00A020A60012180F83510002180F876
:103A50003410A9E2D90300F1A982016C97E200BFFA
:103A60004027C4F20207B94221D058271AE000BF0C
:103A700040F24047C4F20207B94218D040F258471A
:103A800010E000BFA027C4F20207B9420FD0B82748
:103A900008E000BF40F2A047C4F20207B94206D0D6
:103AA00040F2B847C4F20207B94218BF08240F68B1
:103AB000274208D00F6827F004070F60AB60436D02
:103AC00043F0010343650123934033426FD05145D6
:103AD00010DC6F27C4F20207B9421DDC3F27C4F295
:103AE0000207B94234DC1027C4F20207B94256D0AB
:103AF00028274FE049451BDC40F23F47C4F202074C
:103B0000B9422DDC40F21047C4F20207B94246D058
:103B100040F228473EE000BF9F27C4F20207B942A7
:103B200028DC7027C4F20207B94238D0882731E078
:103B300040F29F47C4F20207B94223DC40F27047CB
:103B4000C4F20207B9422AD040F2884722E000BFFF
:103B50004027C4F20207B94221D058271AE000BF1B
:103B600040F24047C4F20207B94218D040F2584729
:103B700010E000BFA027C4F20207B9420FD0B82757
:103B800008E000BF40F2A047C4F20207B94206D0E5
:103B900040F2B847C4F20207B94240F00D824F69C3
:103BA0003F0604D5AB60436D43F002034365042335
:103BB000934033426FD0514510DC6F27C4F20207A7
:103BC000B9421DDC3F27C4F20207B94234DC10279A
:103BD000C4F20207B94256D028274FE049451BDC02
:103BE00040F23F47C4F20207B9422DDC40F21047D1
:103BF000C4F20207B94246D040F228473EE000BF77
:103C00009F27C4F20207B94228DC7027C4F20207DA
:103C1000B94238D0882731E040F29F47C4F202070A
:103C2000B94223DC40F27047C4F20207B9422AD0FD
:103C300040F2884722E000BF4027C4F20207B942A1
:103C400021D058271AE000BF40F24047C4F20207D3
:103C5000B94218D040F2584710E000BFA027C4F284
:103C60000207B9420FD0B82708E000BF40F2A047D2
:103C7000C4F20207B94206D040F2B847C4F20207C4
:103C8000B94240F0A1810F68BF0704D5AB60436D16
:103C900043F004034365102303FA02F2324200F0BA
:103CA000828051454FF0080310DC6F27C4F20207F1
:103CB000B9421DDC3F27C4F20207B94234DC1027A9
:103CC000C4F20207B94256D028274FE049451BDC11
:103CD00040F23F47C4F20207B9422DDC40F21047E0
:103CE000C4F20207B94246D040F228473EE000BF86
:103CF0009F27C4F20207B94228DC7027C4F20207EA
:103D0000B94238D0882731E040F29F47C4F2020719
:103D1000B94223DC40F27047C4F20207B9422AD00C
:103D200040F2884722E000BF4027C4F20207B942B0
:103D300021D058271AE000BF40F24047C4F20207E2
:103D4000B94218D040F2584710E000BFA027C4F293
:103D50000207B9420FD0B82708E000BF40F2A047E1
:103D6000C4F20207B94206D040F2B847C4F20207D3
:103D7000B94218BF04230F681F4214D0AA600A6812
:103D800052030A6808D4D20508D40A6822F008024F
:103D90000A60016C21B906E0110351D4016C11B124
:103DA000044688472046C16D01F01F02202101FA18
:103DB00002F3334200F0AF8001681027514511DC57
:103DC0006F26C4F20206B1421EDC3F26C4F2020690
:103DD000B14239DC1026C4F20206B1425BD028267B
:103DE00054E000BF49451BDC40F23F46C4F20206E6
:103DF000B14231DC40F21046C4F20206B1424AD070
:103E000040F2284642E000BF9F26C4F20206B142BB
:103E10002CDC7026C4F20206B1423CD0882635E084
:103E200040F29F46C4F20206B14227DC40F27046DF
:103E3000C4F20206B1422ED040F2884626E000BF0E
:103E4000816C0029ACD1AEE74026C4F20206B14233
:103E500021D058261AE000BF40F24046C4F20206C4
:103E6000B14218D040F2584610E000BFA026C4F27C
:103E70000206B1420FD0B82608E000BF40F2A046CB
:103E8000C4F20206B14206D040F2B846C4F20206BD
:103E9000B14218BF02270E683E423CD0AB6090F89A
:103EA0003530042B0B681DD123F016030B604B69D2
:103EB00023F080034B61036C0BB9836C1BB10B685F
:103EC00023F008030B603F219140A960012180F895
:103ED0003510016D00294FF0000280F8342057D1D1
:103EE0005AE000BF5A030A680ED4D2050ED40A68FD
:103EF00022F010020A60012180F83510002180F8BC
:103F00003410C16B21B906E0110351D4C16B11B15A
:103F1000044688472046416D00293DD0416DC907C0
:103F200034D0042180F8351001684FEA98220B68DC
:103F300023F001030B60019B0133019393421AD8D4
:103F40000B68DB0717D0019B01330193934212D812
:103F50000B68DB070FD0019B0133019393420AD812
:103F60000B68DB0707D0019B01330193934202D812
:103F70000B68DB07DFD10968C9074FF0030108BFF1
:103F8000012180F83510002180F83410C16C19B17E
:103F900002B0BDE8F047084702B0BDE8F08700BFB7
:103FA000D90301D4416CF2E7C16BF0E7816CEEE715
:103FB000416C0029ACD1AEE70B6804239340334237
:103FC0007FF4F9AD67E600BF0B6864E6000000000F
:103FD0002DE9F041044600F01BFEFCB140F26F48B1
:103FE00005462068C4F2020840451BDC9F21C4F24C
:103FF0000201884232DC5721C4F20201884259DCB6
:104000001021C4F20201884200F083802821C4F20A
:104010000201884200F07D80402175E00120BDE86A
:10402000F08100BF45F22F41C5F60201884229DC2C
:1040300040F2B741C4F20201884247DC40F27041CD
:10404000C4F20201884264D040F28841C4F2020105
:1040500088425ED040F2A04156E000BF40F22741C6
:10406000C4F20201884241DCA021C4F2020188426C
:104070004FD0B821C4F2020188424AD040F2104128
:1040800042E000BF45F26B41C5F60201884200F3F1
:10409000B38045F23041C5F60201884200F0BF808E
:1040A00045F24441C5F60201884200F0B88045F26D
:1040B0005841AFE05821C4F20201884229D0702152
:1040C000C4F20201884224D088211DE040F2B841A8
:1040D000C4F2020188421CD045F20841C5F6020133
:1040E000884200F09C8045F21C4193E040F2284158
:1040F000C4F2020188420CD040F24041C4F20201F5
:10410000884206D040F25841C4F20201884240F091
:104110001B81022184F83510002184F834100168D5
:1041200021F00101016000BF20680168C9070DD0BE
:1041300000F06EFD401B0628F6D3202060650320AA
:1041400084F835000120BDE8F08100BF48F23F024D
:1041500004F108060168CFF61062114065694CCE83
:104160001143A2691943E3693143266A0D43616A29
:104170002B43042943EA060343EA020303D1D4E9AB
:104180000B652E43334341F20006C5F60046366800
:10419000B6F1005F0FD36568A5F129061F2E00F266
:1041A00035820127B7403F26CCF2C036374200F0B7
:1041B0002D8243F4801303600429436923F007032D
:1041C00041EA030140F0DC80D4E90A53002B41EAC4
:1041D000050100F0D580B2F5005F00F0B780002A3D
:1041E00040F0C080022D00F0C080012D00F0B480AE
:1041F000002D00F0BA80C3E045F26C41C5F6020123
:1042000088420CD045F28041C5F60201884206D0B2
:1042100045F29441C5F60201884240F0958004F1D0
:10422000080E022184F83510002184F8341001684A
:10423000A3699EE80450A2F18005E769B5FA85F507
:1042400066696D09402A4FEA853543EA07026FF334
:10425000101142EA060208BF102541EADC0142EAD9
:104260000E02236A294341EAD20141EA131140F8C0
:104270000819C0B2CD2148433C2101EA9020E065F5
:104280002046FEF789F8E16D012201F01F0102FAD4
:1042900001F141602068404500F381809F21C4F214
:1042A0000201884214DC5721C4F20201884227DC53
:1042B0001021C4F20201884200F0C7802821C4F214
:1042C0000201884200F0C1804021C4F20201B9E03D
:1042D00040F22741C4F20201884221DCA021C4F24D
:1042E0000201884200F0B180B821C4F20201884284
:1042F00000F0AB8040F21041C4F20201A2E000BF26
:104300005821C4F20201884200F09F807021C4F25B
:104310000201884200F099808821C4F2020191E0F4
:1043200040F22841C4F20201884200F08E8040F23F
:104330004041C4F20201884200F0878040F25841B7
:10434000C4F202017EE000BF4020F7E6032D17D83B
:10435000DFE805F00E0B0E02A3F1C072B2FA82F292
:10436000520904E0032D03D30AD1C3F300623AB12A
:1043700040206065012084F83500BDE8F08100BF71
:1043800041612046FEF708F8E16D3F2201F01F0170
:1043900002FA01F18160206840457FF77FAF45F266
:1043A0002F41C5F60201884216DC40F2B741C4F243
:1043B0000201884226DC40F27041C4F202018842C8
:1043C00043D040F28841C4F2020188423DD040F21D
:1043D000A041C4F2020135E045F26B41C5F602018D
:1043E00088421FDC45F23041C5F6020188422CD0DC
:1043F00045F24441C5F60201884226D045F25841B3
:104400001EE000BF40F2B841C4F2020188421CD055
:1044100045F20841C5F60201884216D045F21C411A
:104420000EE000BF45F26C41C5F6020188420CD097
:1044300045F29441C5F60201884206D045F280411A
:10444000C5F60201884240F0D98045F2574C45F646
:10445000FC0EC5F6020CC5F6020E60450EDC45F2F8
:104460002F41C5F60201884218DC45F20841C5F625
:104470000201884228D045F21C4121E045F27F41EB
:10448000C5F60201884213DC45F25841C5F6020127
:10449000884219D045F26C4112E000BF45F230412C
:1044A000C5F6020188420FD045F2444108E000BF42
:1044B00045F29441C5F60201884205D045F280419B
:1044C000C5F60201884247D100F0FC014CF6CD420E
:1044D0000839CCF6CC42A1FB0212AEF1FC05AEF1DC
:1044E0007C061309A26803F01F01802A4FF0010225
:1044F00005EB8305256602FA01F26666A26605D120
:1045000000206060286072601EE000BF6368D9B25E
:104510005F1E072F2960726016D84E1E082E19D212
:1045200060450EF1440237DC45F22F41C5F6020129
:10453000884241DC45F20841C5F60201884251D06B
:1045400045F21C414AE000BF00206067C4E91B003F
:1045500054E000BFE06E4CE000F0F8014AF6AB22F8
:104560001039CAF6AA22A1FB021240F20F43C4F28C
:10457000020308251109984203F1AA060B4688BFD9
:1045800005EB121340F60005B042C4F2020505F136
:10459000800628BF0B46A5E745F27F41C5F602011C
:1045A000884213DC45F25841C5F60201884219D011
:1045B00045F26C4112E000BF45F23041C5F6020100
:1045C00088420FD045F2444108E000BF45F28041E7
:1045D000C5F60201884205D045F29441C5F60201B4
:1045E00088421BD10EEB83000121E066B1402267B7
:1045F000616700210160D4E91C0141600020606511
:10460000012184F83510BDE8F08100BFA5F14F0706
:10461000042F38BF43F48013CDE500BF40F60000FF
:10462000C4F2020000F1FC0E00F5A072DAE700000F
:1046300030B110B590F83440012C03D1022010BDE8
:1046400001207047012480F8344090F83540012C57
:104650002CD1022480F8354000244465D0F800C0F5
:10466000DCF8004024F00104CCF800400446FDF7DB
:1046700027FF40F20F4C2068C4F2020C40F26F4159
:104680006045C4F2020119DC6F23C4F202039842B0
:1046900026DC3F23C4F2020398423DDC1023C4F21F
:1046A000020398425FD0282358E000BF4FF4006116
:1046B0004165002180F83410012010BD88421BDCC8
:1046C00040F23F43C4F2020398422DDC40F2104313
:1046D000C4F20203984246D040F228433EE000BFB5
:1046E0009F23C4F20203984228DC7023C4F2020321
:1046F000984238D0882331E040F29F43C4F202034D
:10470000984223DC40F27043C4F2020398422AD05C
:1047100040F2884322E000BF4023C4F202039842E3
:1047200021D058231AE000BF40F24043C4F20203F4
:10473000984218D040F2584310E000BFA023C4F2C2
:10474000020398420FD0B82308E000BF40F2B843FC
:10475000C4F20203984206D040F2A043C4F202031E
:10476000984240F02F8103680B2262F344030360F8
:10477000226C1AB1082302681A430260884219DCCD
:104780009F22C4F20202904232DC5722C4F202029B
:10479000904259DC1022C4F20202904200F096804E
:1047A0002822C4F20202904200F090804022C4F21B
:1047B000020289E045F22F42C5F6020290422DDC4A
:1047C00040F2B742C4F2020290424BDC40F2704227
:1047D000C4F20202904279D040F28842C4F202024E
:1047E000904273D040F2A042C4F202026CE000BFDB
:1047F00040F22742C4F20202904243DCA022C4F2FB
:104800000202904262D0B822C4F2020290425DD00D
:1048100040F21042C4F2020256E000BF45F26B4281
:10482000C5F6020290423FDC45F23042C5F6020274
:1048300090424BD045F24442C5F60202904245D028
:1048400045F258423EE000BF5822C4F202029042B4
:104850003CD07022C4F20202904237D08822C4F2C7
:10486000020231E040F2B842C4F2020290422DD07E
:1048700045F20842C5F60202904227D045F21C429A
:1048800020E000BF40F22842C4F2020290421DD054
:1048900040F24042C4F20202904217D040F2584225
:1048A000C4F2020210E000BF45F26C42C5F60202FB
:1048B00090420BD045F29442C5F60202904205D0D8
:1048C00045F28042C5F60202904274D1236E1A6806
:1048D000D20303D51A6842F480721A60E36E1BB1EA
:1048E0001A6842F480721A60604511DC6F21C4F2CC
:1048F000020188421EDC3F21C4F20201884235DCFD
:104900001021C4F20201884255D0282150E000BF96
:1049100088421BDC40F23F41C4F2020188422DDC98
:1049200040F21041C4F20201884244D040F22841D2
:104930003EE000BF9F21C4F20201884228DC7021C2
:10494000C4F20201884236D0882131E040F29F4112
:10495000C4F20201884223DC40F27041C4F2020139
:10496000884228D040F2884122E000BF4021C4F2B2
:10497000020188421FD058211AE000BF40F2404196
:10498000C4F20201884216D040F2584110E000BF44
:10499000A021C4F2020188420DD0B82108E000BF76
:1049A00040F2B841C4F20201884204D040F2A04172
:1049B000C4F202018842016841F001010160002057
:1049C00010BD00BF0268052363F343020260226C3E
:1049D000002A3FF4D3AE0423CDE60000000000001F
:1049E000B0B5044600F014F940F240010546C2F2A9
:1049F0000041621C097818BF0C4400BF00F008F9A0
:104A0000401BA042FAD3B0BD2DE9F04F85B00F682E
:104A10000390002F00F0E680039842F2004600F178
:104A200026428C4602F1FF72C5F602060A21B04208
:104A30004FEAB22600F1200008BF09210090092E9C
:104A400038BF4FEAB221002400264FF00008019140
:104A5000CDF808C00CE000BF08F10108DCF80070D8
:104A600037FA08F106F1020604F1040400F0BA80F6
:104A7000012000FA08F217EA0209EDD0DCF804A0E0
:104A800003200AF0030B00FA06F5ABF10107012F32
:104A900012D803988768DCE902C3AF43B3403B43B5
:104AA0008360CAF30017436823EA020207FA08F397
:104AB0001A43426008E000BFDCF808C0BBF1030FF6
:104AC00008BFBCF1010F2DD003994FEA480EE8430F
:104AD0000CFA06F3CA68BBF1020F22EA050242EAA9
:104AE0000302CA601AD183466FF0030000EA58023D
:104AF000009804F01C050F2150F802C001FA05FAD5
:104B000002992CEA0A078C460B69AB403B43835061
:104B1000D1F804A058460AF0030B0BE0DDF808C0FA
:104B200008E000BF4FF0030BB6460BFA06F2DDF8C3
:104B300008C0D043039B1AF4403F1A6802EA000100
:104B40000BFA0EF241EA020119603FF485AF44F21C
:104B5000F44040F20845C5F60200C5F600050168BC
:104B600041F00201016001680F2001F0020104918F
:104B700028F00301049A04F00C024B5900FA02F7E2
:104B80000198BB4300FA02F24FF0B0401A434A5179
:104B90000168DCF8042041EA0903D70258BF21EA82
:104BA00009039702036040F20400C5F600000168A3
:104BB00041EA090358BF21EA090397030360D0F8CB
:104BC000801041EA090358BF21EA0903D203C0F863
:104BD0008030C16F41EA090358BF21EA0903C36766
:104BE0003AE700BF05B0BDE8F08F0000000000000C
:104BF000002A08BF0904816170470000000000001E
:104C000041F20000C5F600400068000C704700004B
:104C100040F61820C2F20040006870470000000013
:104C200040F2400040F61821C2F20040C2F20041BA
:104C300000780A6810440860704700000000000017
:104C400080B5032000F0ACF801F086FB44F2184177
:104C50004AF23813C5F60201C0F600030A68C2F32F
:104C600003229A5C096801F00F0102F01F02595CEF
:104C7000D04040F24C02C2F2004201F01F0120FA83
:104C800001F1116040F24801C2F2004108600F20BA
:104C900000F00AF800281CBF012080BD00F02CF8AD
:104CA000002080BD00000000B0B540F24005C2F217
:104CB00000452978F1B1044640F24800C2F20040B4
:104CC0004FF47A72B2FBF1F10068B0FBF1F002F040
:104CD0001FF90F2C01464FF001000AD8002918BF18
:104CE000B0BD4FF0FF300022214600F029F800202F
:104CF0006C60B0BD0120B0BD81B044F2F440C5F697
:104D00000200016841F002010160006800F0020049
:104D10000090009801B07047002848BF704700F02D
:104D20001F01012202FA01F14EF20012C0F34A10F3
:104D3000CEF2000242F82010704700000000000090
:104D400070B54EF60C5C4FF0FF36CEF2000C00F161
:104D5000604505F56445DCF80030C3F3022E8EF0A3
:104D60000703042B28BF0423BEF1030406FA03F350
:104D700021EA030100F00F0338BF0024043B0028A0
:104D8000634406FA04F048BF03F10C05A14022EA8F
:104D9000000008430001287070BD00000000000002
:104DA0004EF60C514FF6FF03CEF200010A681A408E
:104DB00060F30A2242F0806040F0FD7008607047A6
:104DC000B0B544F60C05C5F60205296849072968FF
:104DD00006D401F00701081A18BF0120B0BD00BFBA
:104DE00021F0070108432860FFF712FF044600BFC7
:104DF00055F8080C800407D4FFF70AFF001BB0F534
:104E00007A7FF5D90120B0BD0020B0BD00000000C0
:104E100080B544F23041C5F6020151F8083C51F822
:104E2000082C51F804CCC2F3051E4A68BEF1000FED
:104E30001AD0C2F3CC0203F0030300EE102A9FED58
:104E40003A1AB8EE400A20EE010A9FED381ADFE860
:104E500003F00323110700BF51F8302C92060DD444
:104E60009FED331A18E000BF00218160C0E90011F6
:104E700080BD00BF9FED2F1A0EE000BF51F8302C0F
:104E800049F20003C0F2D033C2F3C10223FA02F2A6
:104E900001EE102AB8EE411A0A689FED273A6FF327
:104EA0005F2202EE102A5FEACC7203FE000A03EED4
:104EB00010EA0A68B8EE422AC2F34622B8EE433A34
:104EC000013230EE020AB7EE002A81EE031A30EE0C
:104ED000020A21EE000A01EE102AB8EE411A80EE15
:104EE000011ABCEEC11A80ED001A0A68C2F306422C
:104EF000013201EE102AB8EE411A80EE011ABCEE22
:104F0000C11A80ED011A0968C1F30661013101EE91
:104F1000101AB8EE411A80EE010ABCEEC00A10EE7B
:104F2000101A816080BD00BF000000390024744A5F
:104F30000024744C20BCBE4B0000000000000000A8
:104F400080B544F2384EC5F6020E5EF8103C5EF8AD
:104F5000101C5EF80C2CC1F3053CDEF80410BCF10B
:104F6000000F19D0C9089FED3C1AD20601EAE27180
:104F700003F003026FF35F3100EE101AB8EE400A3F
:104F8000DFE802F0022210225EF8381C89060DD4F8
:104F90009FED331A18E000BF00218160C0E90011C5
:104FA00080BD00BF9FED2D1A0EE000BF5EF8381CDB
:104FB00049F20002C0F2D032C1F3C10122FA01F17C
:104FC00001EE101AB8EE411ADEF800109FED253AF6
:104FD0006FF35F2102EE101ADEF80010C1F34621D4
:104FE000B8EE422A013100EE032A00EE10CAB7EEF5
:104FF000003AB8EE400A81EE000A32EE031A20EEC3
:10500000010A01EE101AB8EE411A80EE011ABCEE48
:10501000C11A80ED001ADEF80010C1F3064101311B
:1050200001EE101AB8EE411A80EE011ABCEEC11A58
:1050300080ED011ADEF80010C1F30661013101EEC6
:10504000101AB8EE411A80EE010ABCEEC00A10EE4A
:10505000101A816080BD00BF0024744A20BCBE4B82
:105060000024744C0000003980B544F2404EC5F66F
:10507000020E5EF8183C5EF8181C5EF8142CC1F3A2
:10508000055CDEF80410BCF1000F19D0C9089FEDD3
:105090003C1AD20501EAE27103F003026FF35F31BB
:1050A00000EE101AB8EE400ADFE802F002221022E9
:1050B0005EF8401C89060DD49FED331A18E000BF3E
:1050C00000218160C0E9001180BD00BF9FED2D1A55
:1050D0000EE000BF5EF8401C49F20002C0F2D03280
:1050E000C1F3C10122FA01F101EE101AB8EE411A22
:1050F000DEF800109FED253A6FF35F2102EE101AE3
:10510000DEF80010C1F34621B8EE422A013100EE6C
:10511000032A00EE10CAB7EE003AB8EE400A81EE5C
:10512000000A32EE031A20EE010A01EE101AB8EE60
:10513000411A80EE011ABCEEC11A80ED001ADEF8A9
:105140000010C1F30641013101EE101AB8EE411A08
:1051500080EE011ABCEEC11A80ED011ADEF80010D3
:10516000C1F30661013101EE101AB8EE411A80EE6A
:10517000010ABCEEC00A10EE101A816080BD00BFAB
:105180000024744A20BCBE4B0024744C000000393B
:1051900010B584B0024641F6FF7300209B1A70EBF5
:1051A000010329DB40F2FF339B1A70EB010351DA54
:1051B00082F480630B4300F0E58082F400630B43CC
:1051C00000F00E8182F48052114340F0A98144F234
:1051D0000041C5F60201086DC0F30232042A00F254
:1051E000988148F20000C0F2BB00DFE812F00D0128
:1051F0000F0127019901310147F6FF739B1A70EBEC
:10520000010353DA82F400430B4300F0DB8082F4A5
:1052100080330B4300F0048182F40022114340F0FC
:105220007F8144F20041C5F60201886DC0F301425E
:105230000020DFE812F0EB0005000D01750100BF52
:105240000868800040F1658101A8FFF70DFF039811
:1052500004B010BD82F480730B4353D082F400720B
:10526000114340F05D8144F20041C5F60201086D32
:10527000C0F38212042A00F24C8148F20000C0F20E
:10528000BB00DFE812F0C100C300DB004D010500E8
:10529000C86C0A68520700F04052086802D5002A1C
:1052A00000F0DE80C00500F1EF80F7E082F40053EB
:1052B0000B434FD082F48042114340F0318144F2DD
:1052C0000044C5F60204A06DC0F30270052800F288
:1052D0002081DFE810F00700190103010D01F7003C
:1052E000270100BF00F0E0FF216A4AF23812C0F641
:1052F0000002C1F30211515C01F01F01C84004B06B
:1053000010BD00BF44F20041C5F60201086D00F077
:105310000702042A00F2FD8048F20000C0F2BB0040
:10532000DFE812F0720074008C00FE00060000BF7F
:10533000C86C0A68520700F04052086802D5002A7B
:1053400000F08E80C00540F1A980B2F1805F00F0CE
:105350009E80A3E044F20040C5F60200016DC1F357
:105360000241052900F2D580DFE811F00600D000E7
:10537000BA00C800AE00DE0004B0BDE8104000F086
:10538000BBBF00BF44F20041C5F60201886DC0F307
:105390004252042A00F2BD8048F20000C0F2BB0075
:1053A000DFE802F032344CBE040000BFC86C0A686B
:1053B000520700F04052086840F16480002A4FD044
:1053C00060E000BF44F20041C5F60201086DC0F381
:1053D00001720020DFE802F0021874A40868A4E05B
:1053E00044F20041C5F60201886DC0F30262042A4E
:1053F00000F28F8048F20000C0F2BB00DFE802F04C
:1054000004061E90280000BF086811E0086800012B
:1054100040F17F8001A8FFF793FD019804B010BD13
:1054200044F20040C5F60200C16C0068C90321D4F3
:1054300080016ED501A8FFF7EBFC70E008688000E2
:1054400067D501A8FFF710FE019804B010BD00BF9A
:10545000C86C0A68520700F04052086812D58AB931
:10546000C0F3C10049F20001C0F2D03121FA00F0CE
:1054700004B010BD00014CD501A8FFF761FD0398F1
:1054800004B010BDC00509D5B2F1805F06D140F669
:105490000010C0F23D0004B010BD00BF0868B2F1BA
:1054A000005F00F400314FF0000004BF47F64000F9
:1054B000C0F27D10002908BF084604B010BD00BF2F
:1054C000086824E0206800E0006840F60011C0058C
:1054D000C0F23D0101EAE07004B010BD206800E0B8
:1054E0000068800015D501A8FFF7BEFD17E000BFDA
:1054F000206840070DD52068B2E700BF0168490762
:1055000007D50068ACE700BF206800E00068000134
:1055100002D4002004B010BD01A8FFF711FD0298CD
:1055200004B010BD206800E0006847F64001800329
:10553000C0F27D1101EAE07004B010BD000000006F
:105540002DE9F0470446C07844F22C480007C5F620
:10555000020828D5A06E4FEA305103292AD8DFE887
:1055600001F0030B131B00BFD8F8001041F4003109
:10557000C8F8001010E000BF04F10800022103F099
:1055800063FC064680B906E004F12800022103F01E
:10559000EFFC064640B9A06ED8F8241021F4401163
:1055A0000843C8F8240000266078C00706D13546B5
:1055B0002FE000BF01266078C007F8D0A06D042856
:1055C00058D83546DFE800F004140E0B0B0000BF7E
:1055D000D8F80000354640F40030C8F800002F46E7
:1055E000C5B90DE004F12800002103F0C1FC04E07E
:1055F00004F10800002103F027FC05462F464DB9B1
:10560000D8F82400A16D20F0070000250843C8F851
:10561000240037466078800731D5E06D4FEAB0103E
:1056200004285FD8DFE800F004140E0A0A0000BF67
:10563000D8F8000040F40030C8F800002E46FDB94C
:105640000EE000BF04F12800002103F091FC04E00B
:1056500004F10800002103F0F7FB05462E467DB952
:10566000D8F82400E16D20F4E07000250843C8F864
:10567000240004E00125012760788007CDD43E4650
:105680006078400733D5D4F8A8004FEA705004285A
:1056900060D8DFE800F003130D090900D8F8000016
:1056A00040F40030C8F80000A9460DBB0EE000BF72
:1056B00004F12800002103F05BFC04E004F1080081
:1056C000002103F0C1FB0546A9468DB9D8F82C008E
:1056D000D4F8A81020F4600000250843C8F82C0076
:1056E00005E000BF0125012660784007CBD4B14614
:1056F0006078000734D5D4F8AC004FEA3060042855
:105700005ED8DFE800F003130D090900D8F80000A7
:1057100040F40030C8F800002F4615BB0EE000BF73
:1057200004F12800002103F023FC04E004F1080048
:10573000002103F089FB05462F4695B9D8F82C00C7
:10574000D4F8AC1020F0E06000250843C8F82C0025
:1057500006E000BF01254FF0010960780007CAD4B8
:105760004F46E078800730D5E06C4FEA30100328D0
:1057700020D8DFE800F00903150900BFD8F80000C1
:1057800040F40030C8F800002E46ADB9D8F820002B
:10579000E16C20F0300000250843C8F8200014E038
:1057A00004F10800022103F04FFB05462E461DB907
:1057B000ECE700BF012501266078C00609D434E07B
:1057C00001250127E0788007CED43E466078C006E8
:1057D0002BD5206E4FEA3030042839D8DFE800F0AE
:1057E00004140E0A0A0000BFD8F8000040F400308C
:1057F000C8F800002F46CDB90EE000BF04F1280024
:10580000002103F0B5FB04E004F10800002103F0DF
:105810001BFB05462F464DB9D8F82400216E20F415
:10582000E04000250843C8F8240037466078800629
:1058300035D5606E4FEA3040052815D8DFE800F016
:10584000041A0E04040400BF2E46DDB91EE000BF9A
:105850000125012760788006EBD420E004F12800C0
:10586000012103F085FB0AE001250126607840064E
:1058700019D449E004F10800012103F0E5FA0546D6
:105880002E461DB1607840060DD43DE0D8F82400C6
:10589000616E20F4E02000250843C8F824003E464D
:1058A0006078400630D5D4F8B0004FEA3070052853
:1058B0000ED8DFE800F00313070303032F46ADB94A
:1058C00018E000BF04F12800012103F051FB0AE0B9
:1058D00001250127607800061AD43CE004F1080095
:1058E000012103F0B1FA05462F461DB1607800068C
:1058F0000ED430E0D8F82C00D4F8B01020F0E040FE
:1059000000250843C8F82C0037466078000622D5E9
:10591000206F58B1B0F1005F0CD0B0F1805F37D18B
:10592000D8F8000040F40030C8F800002E469DB9B9
:1059300008E000BF04F10800012103F085FA0546E4
:105940002E464DB9D8F82400216F20F04050002594
:105950000843C8F824003E46E078C0071DD0A06C7C
:10596000032855D8DFE800F008024A08D8F80000FC
:1059700040F40030C8F80000A9467DB9D8F82000EE
:10598000A16C20F0030000250843C8F8200004E0C3
:1059900001250126E078C007E1D1B146A078400694
:1059A00002D44F4618E000BFD8F8D40340F480700A
:1059B000C8F8D403FFF72CF9064600BFD8F8D40383
:1059C000C00507D4FFF724F9801B6428F6D9032506
:1059D000032701E02F46FDB12078C00700F06F805B
:1059E000E06F4FEAF00005284ED8DFE800F00353DF
:1059F00047030303002D2E4654D157E004F108005D
:105A0000022103F021FA0546002DA946C6D1B5E7CB
:105A100001254FF00109C1E7D8F84410D4F8B400CB
:105A2000414011F4407F11D0D8F84410D8F84420F8
:105A300042F48032C8F84420D8F8442021F4407160
:105A400022F48032C8F84420C8F84410B0F5807FB2
:105A500040F0E082FFF7DCF8064641F2883A032581
:105A6000032700BFD8F84400800700F1D182FFF778
:105A7000CFF8801B5045F5D9AEE700BF04F12800F0
:105A8000012103F075FA0AE001250126207880073C
:105A900019D446E004F10800012103F0D5F90546C8
:105AA0002E461DB1207880070DD43AE0D8F82800A2
:105AB000E16F20F0380000250843C8F828003E4672
:105AC000207880072DD5A06F05280FD8DFE800F0DB
:105AD00004140804040400BF2F46ADB918E000BF49
