:020000040800F2
:10000000504A0024AD020008917B000849620008B4
:10001000897B0008E10A000819820008000000003E
:10002000000000000000000000000000E97E000861
:10003000390F000800000000997B0008F17E0008DD
:10004000CB020008CB020008CB020008CB0200085C
:10005000CB020008CB020008CB020008CB0200084C
:10006000CB020008CB020008CB020008E90A000816
:10007000F90A0008CB020008CB020008CB020008F6
:10008000CB020008CB020008C10A0008CB0200081E
:10009000CB020008CB020008CB020008CB0200080C
:1000A000CB020008CB020008CB020008CB020008FC
:1000B000CB020008CB020008CB020008CB020008EC
:1000C000CB020008CB020008CB020008F17D00083B
:1000D000CB020008CB020008CB020008CB020008CC
:1000E000CB020008CB02000800000000CB02000891
:1000F000CB020008CB020008CB020008CB020008AC
:10010000CB020008CB020008CB020008CB0200089B
:10011000CB020008CB020008CB020008CB0200088B
:10012000CB020008CB020008CB020008CB0200087B
:10013000CB020008CB020008CB020008CB0200086B
:1001400000000000000000000000000000000000AF
:10015000CB020008CB020008CB020008CB0200084B
:10016000CB020008CB020008CB020008CB0200083B
:10017000CB020008CB020008CB0200080000000000
:10018000CB020008CB020008CB020008CB0200081B
:10019000CB020008CB020008CB020008CB0200080B
:1001A000CB020008CB020008CB020008CB020008FB
:1001B000CB020008CB020008CB020008CB020008EB
:1001C000CB020008CB020008CB020008CB020008DB
:1001D000CB020008CB020008CB020008CB020008CB
:1001E000CB020008CB020008CB020008CB020008BB
:1001F000CB020008CB020008CB020008CB020008AB
:10020000CB020008CB020008CB020008CB0200089A
:10021000CB020008CB020008CB020008CB0200088A
:10022000CB020008CB020008CB020008000000004F
:10023000CB020008CB02000800000000CB0200083F
:10024000CB020008CB020008CB020008CB0200085A
:10025000CB020008CB020008CB020008CB0200084A
:10026000CB020008CB020008CB020008CB0200083A
:10027000CB020008CB020008CB02000800000000FF
:10028000CB020008CB020008CB02000800000000EF
:1002900000000000CB020008DFF80CD000F060F88E
:1002A0000048004721820008504A00240748804740
:1002B0000748804707480047FEE7FEE7FEE7FEE7FE
:1002C000FEE7FEE7FEE7FEE7FEE7FEE7490F000870
:1002D000D97F000899020008D2B201E000F8012B92
:1002E000491EFBD270470022F6E710B513460A46B6
:1002F00004461946FFF7F0FF204610BD2DE9F05FD8
:100300000546002092469B46884606468146402484
:100310001BE0284641464746224600F048F853462F
:100320005A46C01A914110D311461846224600F091
:100330002FF82D1A67EB01084F46224601200021B5
:1003400000F026F817EB00094E41201EA4F101042D
:10035000DFDC484631462A464346BDE8F09F0000B0
:100360001CB509480090094801900546009C06E02C
:10037000E06840F0010394E8070098471034AC426D
:10038000F6D3FFF78DFF0000708800089088000802
:10039000202A04DB203A00FA02F100207047914045
:1003A000C2F1200320FA03F3194390407047202A3A
:1003B00004DB203A21FA02F00021704721FA02F30F
:1003C000D040C2F120029140084319467047000016
:1003D000B0B50446006842F2001140F48070C4F2E7
:1003E0000201884218D142F20830C4F202000068CB
:1003F00010F4403F18D004F0FBFC61680546B1F5ED
:10040000803F05D0B1F5403F2CD0B1F5003F2AD157
:10041000080CB5FBF0F526E046F20830C5F6020000
:10042000006810F4403FE6D14FF40020002103F0B3
:1004300053FC61680546A1F580224FEAB2420A2AC0
:1004400011D8DFE802F0070707070707555359518E
:10045000570000BF6FF0010000EA5140B5FBF0F516
:1004600001E000BFAD0803F01FF941F2030188422B
:100470000ED8206842F60151C0F231118D428168D8
:100480002CBF41F4807121F480718160B0BD00BF48
:100490004BF62140C0F2BE00854205D82068816835
:1004A00021F440718160B0BD47F64100C0F27D107B
:1004B000854207D820680122816862F309218160A2
:1004C000B0BD00BF20684FF28101C0F2FA218D4219
:1004D000816805D8022262F309218160B0BD00BFA6
:1004E00041F440718160B0BDED09BCE76D09BAE728
:1004F0002D09B8E72D0AB6E7AD09B4E70000000002
:100500000146806B426D12F0500F426D06D0D2064C
:1005100010D4C06CC26C0846104700BF42F4007192
:10052000416501680A681207CA6805D4910709D0B5
:1005300001F002B901F0DCB912F4406FF8D1C968DA
:100540008904F5D4416D21F480714165416DC90480
:10055000EED4416D41F00101416501F0EDB80000BC
:10056000806B416D41F040014165816D41F00401B6
:10057000816501F0BDB90000806B01F0B5B90000E4
:10058000B0B5016804468A688868C0074FF000006B
:1005900031D012F0020218BFB0BD886800F00D0023
:1005A00001281FD14FF6C0728868C7F6FF7210404D
:1005B000023088600320086003F07EF821688968B3
:1005C000C90701D10020B0BD054602E08068C00720
:1005D000F8D003F071F8401B03282068F6D3816837
:1005E000C907F3D0606D40F010006065A06D40F069
:1005F0000100A0650120B0BD2DE9F04F81B02DEDC7
:100600000A8B8AB040F228000021C2F20040EF229B
:1006100040F23F13002706680020009706F07CF8A0
:1006200000200021EF22002342F20415009506F07D
:1006300073F800202821EF222823009506F06CF89B
:1006400000205021EF225023009506F065F800208D
:100650007821EF227823009506F05EF80020A02193
:10066000EF22A0234CF21864009406F055F8002005
:10067000C821EF22C823009506F04EF80020F02193
:10068000EF22F02300954FF0F00B06F045F8002024
:100690004FF48C71EF224FF48C73009506F03CF808
:1006A00000204FF4A071EF224FF4A073009506F0E4
:1006B00033F800200021002240F23F13009506F09D
:1006C0002BF818200021182240F23F13009506F065
:1006D00023F830200021302240F23F13009506F02D
:1006E0001BF848200021482240F23F13009506F0F5
:1006F00013F860200021602240F23F13009506F0BD
:100700000BF878200021782240F23F13009406F085
:1007100003F890200021902240F23F13009505F04D
:10072000FBFFA8200021A82240F23F13009505F00E
:10073000F3FFC0200021C02240F23F13009505F0D6
:10074000EBFFD8200021D82240F23F13009505F09E
:10075000E3FFF0200021F02240F23F13009505F066
:10076000DBFF0021F02E38BFB346EF2E88BFA6F185
:10077000F001022E019653D24FF6E07099A21F307D
:10078000042183B2F4200024009405F061FD40F2BE
:1007900030009FED938AC2F2004002AD93A2202167
:1007A00090ED000A284620EE080ABDEEC00A10EEC1
:1007B000103A07F0E9FDF42014214FF6E0732A46C1
:1007C000009405F045FD40F234008BA2C2F20040D7
:1007D000202190ED000A284620EE080ABDEEC00A4E
:1007E00010EE103A07F0D0FDF420222147F6FF73F7
:1007F0002A46009405F02CFD82A220212846019B68
:1008000007F0C2FDF420302148F210432A4600943C
:1008100005F01EFD0AB0BDEC0A8B01B0BDE8F08FFB
:1008200048F68900BFEE008AC8F688009FED6A9AF4
:10083000A1FB00029FED69AAB0EE482A9FED68BABD
:10084000100AB3EE09CA00014C1CA0EB122040F2C2
:100850007442C2F20042ABF10105A1EB40104FF42B
:10086000A07102EB44064FF0000932F8103000EEA0
:10087000103A40F2B403C2F2004303EB4407B8EE6F
:10088000400A33F8100001EE100A00EE092AB0EE1B
:10089000480AB8EE411A01EE090A22EE0A1A21EEC0
:1008A0000B1A20EE0A0A81EE0C1A20EE0B0ABDEE9E
:1008B000C11A80EE0C0A11EE100ABDEEC00AC0F19A
:1008C000A00020EAE07810EE100AB8F5A07FA8BFDB
:1008D0008846C0F1A00020EAE070B0F5A07FA8BF74
:1008E000084606E04D4504F101045846D0463FF461
:1008F00043AF48F68902B0EE482AC8F68802A4FB46
:1009000002231A0AA2EB021207EB821306EB8212F1
:1009100033F8193032F8192009F1010900EE103AC4
:1009200001EE102AB8EE400AB8EE411A00EE092A8C
:10093000B0EE480A01EE090A22EE0A1A20EE0A0A6F
:1009400021EE0B1A20EE0B0A81EE0C1A80EE0C0A37
:10095000BDEEC11ABDEEC00A11EE102A10EE103A1B
:10096000C2F1A00222EAE27BC3F1A0024FF4A0731D
:10097000BBF5A07FA8BF9B4622EAE27A0246BAF501
:10098000A07FA8BF9A46834588BF5A469309042B87
:100990000CD893B2834538BF58464FF6E0720092A8
:1009A00081B21FFA89F0024605F0B6FE4246C24502
:1009B00088BF52469009042894D81FFA89F0C2458E
:1009C00038BFD04693B247F6FF721FFA88F1009203
:1009D000024605F0A1FE85E700000038333353409E
:1009E00000007A4453434F50450000004348313AD9
:1009F00025646D56000000004348323A25646D5668
:100A000000000000436E743A256C75000000000081
:100A1000F0B581B0044600688168C9074AD14FF635
:100A2000C0778168C7F6FF7707F17F0211420BD0CC
:100A3000606D40F010006065A06D40F00100A065A1
:100A4000012001B0F0BD00BF8168394041F00101D3
:100A5000816002F031FE42F2000246F20836C4F232
:100A60000202216802F5807302F54275C5F602069E
:100A7000994208BF2E46914208BF2E46994205462C
:100A8000306814D110F01F0014D110E08868C0073E
:100A900004D18868384040F00100886002F00CFE04
:100AA000401B2168032802D30868C007C0D008682B
:100AB000C007EBD0002001B0F0BD00000000000036
:100AC00080B540F63400C2F2004000F015FF40F659
:100AD0009800C2F20040BDE8804000F00DBF000069
:100AE000FEE700000000000040F6FC00C2F20040FB
:100AF00001F0AEBB0000000040F23C00C2F200403A
:100B000001F0A6BB0000000040F20F42D0F800C088
:100B1000C4F20202944511DC6F22C4F20202944531
:100B200022DC3F22C4F20202944539DC1022C4F2D6
:100B3000020294455AD0282254E000BF40F26F428E
:100B4000C4F2020294451BDC40F23F42C4F20202AE
:100B500094452DDC40F21042C4F20202944545D087
:100B600040F228423EE000BF9F22C4F202029445B8
:100B700028DC7022C4F20202944537D0882231E08A
:100B800040F29F42C4F20202944523DC40F27042DC
:100B9000C4F20202944529D040F2884222E000BF0C
:100BA0004022C4F20202944520D058221AE000BF2D
:100BB00040F24042C4F20202944517D040F258423B
:100BC00010E000BFA022C4F2020294450ED0B82269
:100BD00008E000BF40F2B842C4F20202944505D0DA
:100BE00040F2A042C4F20202944517D10CF0F80280
:100BF0004AF6AB23103ACAF6AA23A2FB03310AA392
:100C00005F2AC1F302115B5C40F2FF312CEA010163
:100C1000C36588BF04318165084670472CF0FF0129
:100C200081650846704700BF0006101600061016C2
:100C300070B540F26F44D0F800C0C4F20204D0F89E
:100C400058E0A4451ADC9F25C4F20205AC4533DC0C
:100C50005725C4F20205AC455ADC1025C4F2020542
:100C6000AC4500F098802825C4F20205AC4500F0A0
:100C700092804025C4F202058AE000BF45F22F456C
:100C8000C5F60205AC452DDC40F2B745C4F20205BD
:100C9000AC454BDC40F27045C4F20205AC457AD05D
:100CA00040F28845C4F20205AC4574D040F2A0453C
:100CB000C4F202056CE000BF40F22745C4F2020511
:100CC000AC4543DCA025C4F20205AC4563D0B82591
:100CD000C4F20205AC455ED040F21045C4F20205F4
:100CE00056E000BF45F26B45C5F60205AC453FDC5A
:100CF00045F23045C5F60205AC454CD045F24445B9
:100D0000C5F60205AC4546D045F258453EE000BF69
:100D10005825C4F20205AC453DD07025C4F2020549
:100D2000AC4538D08825C4F2020531E040F2B84520
:100D3000C4F20205AC452ED045F20845C5F60205C1
:100D4000AC4528D045F21C4520E000BF40F22845C4
:100D5000C4F20205AC451ED040F24045C4F2020583
:100D6000AC4518D040F25845C4F2020510E000BF6F
:100D700045F26C45C5F60205AC450CD045F29445EC
:100D8000C5F60205AC4506D045F28045C5F602051C
:100D9000AC4540F0D080456EC66E002E866E6E600B
:100DA0001CBFD0E91C566E60A44515DC9F24C4F21C
:100DB0000204A4452CDC5724C4F20204A44551DCEF
:100DC0001024C4F20204A4457AD02824C4F20204F8
:100DD000A44575D040246FE045F22F44C5F60204C7
:100DE000A44529DC40F2B744C4F20204A44545DC22
:100DF00040F27044C4F20204A44561D040F2884439
:100E0000C4F20204A4455BD040F2A04454E000BF09
:100E100040F22744C4F20204A4453FDCA024C4F2FB
:100E20000204A4454CD0B824C4F20204A44547D01F
:100E300040F2104440E000BF45F26B44C5F60204A6
:100E4000A44555DC45F23044C5F60204A44561D002
:100E500045F24444C5F60204A4455BD045F258442B
:100E600054E000BF5824C4F20204A44528D07024E2
:100E7000C4F20204A44523D088241DE040F2B84403
:100E8000C4F20204A4451BD045F20844C5F602048E
:100E9000A4453FD045F21C4438E000BF40F228444E
:100EA000C4F20204A4450BD040F24044C4F2020450
:100EB000A44505D040F25844C4F20204A4453AD1F6
:100EC0008468C06D00F01F003F2505FA00F0CEF8E1
:100ED0000800DCF80000402C20F48020CCF8000052
:100EE000CCF8043023D1CCF80820CCF80C1070BD1D
:100EF00045F26C44C5F60204A4450BD045F280448B
:100F0000C5F60204A44505D045F29444C5F6020492
:100F1000A44510D1C46D012504F01F04806805FAB2
:100F200004F4CEF804404028CCF80430DBD0CCF8F0
:100F30000810CCF80C2070BD7047000000000000C5
:100F400072B600BFFEE7000044F60400C5F60200DA
:100F5000816841F0020181600168890409D4016857
:100F600089045CBF01685FEA814102D40168890499
:100F7000F2D570470000000070B582B000230193E5
:100F8000044690F85000012802D1022002B070BD42
:100F9000012084F8500020460E461546FFF7F0FA6F
:100FA000616D18B141F010014CE000BF41F2021236
:100FB0004FF6C0739143C3F6FE7302316165216839
:100FC00006F4803605F080458A682E4413404FF2BF
:100FD000FF72C2F2C352334403F100438B608B684B
:100FE000B3F1FF3F2ADC019B01330193019B934244
:100FF0001DD88B68B3F1FF3F20DC019B01330193C7
:10100000019B934213D88B68B3F1FF3F16DC019B21
:1010100001330193019B934209D88B68B3F1FF3FE1
:101020000CDC019B01330193019B9342D7D9606D86
:1010300040F0100020F00201012003E0616D012268
:1010400062F301016165002184F8501002B070BDA7
:101050007047000000000000704700000000000022
:101060007047000000000000704700000000000012
:10107000704700000000000090F85020012A01D1C4
:101080000220704710B582B042F208340023019369
:10109000C4F202040093A4F542720368934227D17C
:1010A0004FF6006ECFF6FF7E54F80E209B681A4371
:1010B00052071DD4D1F800C02268BCF1000F22F401
:1010C000404323D04A681A4322604FF60052CFF6BD
:1010D000FF72A25854F80E301A43D20726D1226864
:1010E00040F61F739A438968114341EA0C011CE0E2
:1010F000416D41F0200141650121002280F850201E
:1011000002B0BDE810400846704700BF4FF60051DE
:101110002360CFF6FF71615854F80E201143C907C0
:1011200004D1216840F61F72914321600021E4E759
:10113000F0B599B003689F687F0703D490F85070AA
:10114000012F03D1022019B0F0BD00BF42F20016FA
:101150000127C4F2020680F85070B34214D0A6F5FD
:1011600080750027AB424FF000031597169708BF14
:10117000334600934ED0416D41F02001416580F827
:101180005070012019B0F0BD0D4614460746FFF718
:101190003FFC002849D13A68F86C796D40F601733C
:1011A000994340F2015C40F2795301F58071796511
:1011B0000021B965C0F6000CC0F60003B242C0E9D8
:1011C0000FC340F26153C0F60003C3644FF01C0329
:1011D000136087F85010516841F01001516029D018
:1011E000A6F5807346F20C31C5F602019A422A46F2
:1011F000234608BF06F5037101F06EFF39684FF60C
:10120000C073C7F6FF738A681A4004328A6019B047
:10121000F0BD00BF0D4614460746FFF7F9FB20B9A5
:101220006846FFF7F5FB0028B5D0002187F850107D
:1012300019B0F0BD02F140012A46234601F04CFFEF
:1012400019B0F0BD00000000F0B581B0002200929E
:1012500090F85020012A03D10221084601B0F0BDC8
:101260000768012380F85030BB685B0700F1968166
:101270000C684FF6FF7CB4F1FF3FC0F20F0C4FEA51
:1012800094630FDD94FAA4F214EA0C0FB2FA82F21E
:1012900008BFA20E012402F01F0204FA02F2FC6948
:1012A0002243FA614A681F2603F01F03C2F3012498
:1012B00002F01F02964007EB840403FA02F2256B4A
:1012C00025EA060632432263BA68BB6802F00402CC
:1012D00003F00803D21840F096800A6807258E684C
:1012E000C2F34063C2F3045207EB830395405C6989
:1012F00006FA02F224EA05052A435A6141F2000285
:10130000C5F60042126802F07042B2F1805F33D13C
:101310004A69FB680E2606EA530302FA03F30C69D6
:10132000042C39D007F160020E6806F0F84652F836
:101330002450334305F000452B4342F824300B6919
:101340004E7E52F82350012E25F0004508BF05F1CE
:10135000004542F823500A7E0B693E69013A03F0CA
:101360001F03B2FA82F226F4F0465209D2029A40E2
:1013700032433A6147E000BFFA684B69FE68D20623
:101380004FEA560402D404F00E0201E004F0080211
:1013900093400C69042CC5D13A6E0B6802F0F842F8
:1013A0009B069A4218D13A6E22F000423A667A6E53
:1013B00002F0F8429A4214D0BA6E02F0F8429A4211
:1013C00018D1BA6E22F00042BA66FA6E02F0F84204
:1013D0009A4214D017E000BF7A6E02F0F8429A42A7
:1013E000EAD17A6E22F000427A66BA6E02F0F842D2
:1013F0009A42E6D0FA6E02F0F8429A4203D1FA6EAF
:1014000022F00042FA66BA68D20779D1D1F800E03A
:101410000023C968D7F8C0200EEA0C04C4F2527346
:10142000A24301F018042CFA04F603F52D0506EA90
:101430000E06A94246EA0201C7F8C0105DD142F289
:101440000011C4F202018F4226D042F20001C4F220
:1014500002018F423CD11F21C1F2F0418E4540F381
:10146000C38040F2FF71C2F630618E4540F3A9801F
:1014700040F60001C2F630618E4500F0478141F22E
:101480000001C3F260218E4500F036810021C4F2D4
:1014900021318E451DD045E11F21C1F2F0418E451D
:1014A00000F388800721C0F690418E4500F3AA80A2
:1014B0000221C0F230418E4500F0A1800421C0F627
:1014C00060018E4540F02E814023C1F6201300E0DC
:1014D000002393FAA3F143F6C132B1FA81F1C0F2CD
:1014E0000A0213424FF0010208BF990E01F01F01DA
:1014F00002FA01F1FA691143F961BEF1FF3F01DD22
:10150000002150E042F2000146F2083CC4F2020120
:10151000C5F6020C01F5807201F5427397426246EE
:1015200008BF1A468F4242F2001408BF1A4647F419
:101530008073C4F20204A342136827D18A68D1F8E9
:1015400008111143C90729D1002103F0E074CCF63A
:1015500084318E4508BF13F4000163D00021CCF222
:1015600052718E4540F0A0800021B1EB146F40F025
:101570009B80ACF542718F42C2D1DCF8001021F0A3
:10158000E071214341F08071A5E000BF4FF60051AA
:10159000CFF6FF715CF80110C907D5D0416D41F05D
:1015A000200141650121002280F85020084601B049
:1015B000F0BD00BF40F2FF71C2F630618E4500F30E
:1015C0008F802021C1F2F0418E4500F0A58040F2CD
:1015D0000041C2F600218E4540F0A48040F6000391
:1015E000C2F6306375E700BF0721C0F690418E4513
:1015F00008DC0221C0F230418E457FF45FAF012349
:1016000067E700BF0821C0F690418E457AD01021CF
:10161000C1F2C0018E4540F0858040F20013C2F255
:10162000801356E7ACF542718F427FF469AFDCF866
:10163000001042F6635221F0E071C0F23E522143A5
:1016400041F40001CCF8001040F21801C2F2004150
:1016500009688909A1FB02129109022202EB4101EA
:101660000091009900293FF44BAF00990139009196
:10167000009900293FF444AF009901390091009985
:1016800000293FF43DAF00990139009100990029EC
:101690003FF436AF009901390091009900294FF0CD
:1016A0000001E2D17FE700BFACF542718F424FF0FD
:1016B00000017FF478AF0022CCF6B872964508BFDF
:1016C00013F480027FF46FAFDCF8001021F0E071BA
:1016D000214341F48001CCF80010002163E700BFF2
:1016E00040F60001C2F630618E450FD041F2000194
:1016F000C3F260218E4515D142F20003C3F290631C
:10170000E7E600BF8023C1F65053E2E641F2000352
:10171000C3F26023DDE600BF40F20023C2F2B05303
:10172000D7E600BF00210023C4F684318E4504BFF4
:101730000023C4F6B873CCE642F200010068C4F29C
:101740000201884218BF70472DE9F0414EF65C70E7
:1017500040F20007CEF20000C2F20047BFF34F8F05
:10176000076040F22800BFF34F8FC2F2004048F6F6
:10177000890EBFF36F8FD7E90021BB680568C8F6F3
:10178000880E40F2B408A5FB0E46C2F2004840F2B3
:10179000744CBFEE001A340AC2F2004C24019FEDD3
:1017A0004F3AA4EB1626B0EE414AA5EB461628F8B0
:1017B00016200668A6FB0E452C0A2401A4EB15256D
:1017C000A6EB4514150C2CF8145004680134046081
:1017D0004468013444600468A4FB0E56350A2D01A8
:1017E000A5EB1625A4EB451428F814100468A4FBF7
:1017F0000E56350A2D01A5EB1625A4EB45140D0C4C
:101800002CF81450046801340460446801344460C6
:101810000468A4FB0E56350A2D01A5EB1625A4EB92
:10182000451428F814300468A4FB0E56350A2D011F
:10183000A5EB1625A4EB45141D0C2CF814500468D8
:1018400001340460446801344460FC680568A5FB09
:101850000E673E0A3601A6EB1726A5EB46150EB21B
:1018600006FA82F628F815400D14016805EB2242AD
:1018700006FA83F5A1FB0E7602EB234205FA84F704
:1018800002EB2442C7F38F07C2F38F0200EE107AF7
:1018900002EE102A330A1B01B8EE400AA3EB16230E
:1018A000B8EE422A220CA1EB431100EE034A9FED51
:1018B0000C0A02EE031A2CF81120016801310160B4
:1018C00041680131416024EE002A21EE000A80EDDA
:1018D000022A80ED030ABDE8F0417047000000389D
:1018E0003333534000000000704700000000000048
:1018F00070470000000000002DE9F04F81B0044661
:1019000042F2000046F20831C4F20200C5F60201BC
:10191000276800F5807A00F54279574508BF4946A7
:10192000874208BF49463E687D68B207D1F800800B
:101930000FD515F002010CD0606DC00603D4606DA8
:1019400040F4006060652046FFF782FB27680221B3
:101950003960710708F01F0B02D515F0040104D19E
:10196000310755D515F0080152D0214651F8542FB2
:10197000D20603D40A6842F400720A60FA6812F4CC
:10198000406F3FD1BBFA8BF2ABF10503B3FA83F39F
:1019900052095B09384642EA030CABF10903B3FA7A
:1019A00083F342F20002C4F20202574508BF104618
:1019B0005B0943EA0C02D207024618BF3A46B84216
:1019C00008BF0246D26892041CD43A68120719D59F
:1019D000BA6852070CD47A6822F00C027A60086860
:1019E00020F4807008600868C00407D50AE000BFD2
:1019F000606D04F1580140F010006065086840F027
:101A0000010008602046FFF797FE27680C21396027
:101A1000B10602D515F0200104D171062CD515F0C0
:101A2000400129D0214651F8542FD20603D40A6828
:101A300042F400520A6042F200023846C4F2020246
:101A4000574508BF104608F01E030246062B08BF84
:101A50003A46BBF1000F08BF3A46B84208BF0246FB
:101A6000F86C10F4C07FFB68D26879D02046FFF78D
:101A7000F3FA27686020386030060CD515F0800036
:101A800009D0606D40F480306065204600F0C8F9F0
:101A9000276880203860F0050DD515F480700AD0D5
:101AA000606D40F4003060652046FFF7DDFA27687E
:101AB0004FF480703860B0050DD515F400700AD071
:101AC000606D40F4802060652046FFF7D1FA2768FA
:101AD0004FF400703860F00627D515F0100024D0C0
:101AE000206BA0B1BBF1000F5CD046F2083042F28F
:101AF0000001C5F60200574508BF4846C4F202017E
:101B00008F4208BF4846006810F4404F0BD0606D0C
:101B100040F480606065A06D40F00200A065204642
:101B2000FFF7E6FE276810203860700514D515F41D
:101B3000806011D0606D40F480406065A06D40F021
:101B40000800A0654FF480603860204601B0BDE811
:101B5000F04FFFF785BA00BF01B0BDE8F08F00BFBE
:101B6000900106D503F4406002F40053C0187FF4DE
:101B70007DAF386840067FF579AF12F400107FF42E
:101B800075AFB868000711D4786820F060007860FD
:101B9000086820F4805008600868C0053FF566AF0B
:101BA0000AE000BFF8688007B1D1BCE7606D04F1BE
:101BB000580140F010006065086840F001000860BE
:101BC00054E700000000000070B582B00446002811
:101BD0004FF0000001902DD0606D30B9204600F02C
:101BE00023F90020A06584F85000206881688900EE
:101BF0004FF6C071C5F6FF7102D582680A40826057
:101C00008268D20031D4826801F18051114042F6DD
:101C1000635241F08051816040F21801C0F23E529F
:101C2000C2F2004109688909A1FB0212012101EBFE
:101C3000921105E00126304602B070BD01990139CC
:101C40000191019989B1019901390191019961B11C
:101C5000019901390191019900291FBF01990139A9
:101C60000191019918BF0029E8D18168C90009D400
:101C7000616D012641F010016165A16D41F0010126
:101C8000A16500E000268168626D02F0100201F09B
:101C900004018918616D40F0918021F48171023155
:101CA00061658168C90728D142F2001240F4807151
:101CB000C4F20202914242F20001C4F2020140F079
:101CC000A5808A68D1F808311A43D20715D101F5E9
:101CD000807201F5427346F2080C9042C5F6020C80
:101CE0001A4618BF0CF54072884208BF1A46606851
:101CF000116821F47C110843106001F0D5FC41F219
:101D0000030100228842A068A0F1100188BF0122CF
:101D1000B1FA81F1237F49091140226B617D15469B
:101D200016BF4D034A031C20012B45EA034141EA3B
:101D3000020141EA000106D1206A0022CFF6FE72BC
:101D400002EB40400143606A20B100F47870A26A5F
:101D50001043014320684CF20303CFF6F073C268CE
:101D60001A401143C1608168826801F0040102F0E9
:101D70000802891836D1217D44F20305E26AC3685E
:101D800042EA813123EA05021143C16094F8381018
:101D9000012901691AD14FF61E020125CFF6004232
:101DA000CFF6FF751140D4E90F231943636C05EB9F
:101DB00002421143A26C1943114309E041F01000A3
:101DC00001266065304602B070BD00BF21F0010100
:101DD00001610169626B21F070411143016120468C
:101DE000FEF7F6FA2068E1680129026B22F00F0184
:101DF00002D1A269013A114301630121606D61F3CF
:101E000001006065304602B070BD00BF46F20802B6
:101E1000C5F602021268D2073FF459AF6DE7000021
:101E20007047000000000000F0B587B042F20013D8
:101E30000168C4F20203002299420692CDE904220D
:101E4000CDE9022258D042F20002C4F202029142CD
:101E500040F09D8040F238050446C2F2004544F24D
:101E6000E040C5F602002968002901F1010129605E
:101E70000BD150F8081C41F0200140F8081C50F824
:101E8000081C01F02001019101990168002641F030
:101E900002010160006802A900F0020001900198AF
:101EA0000320CDE9020040F200400496C5F602008E
:101EB00001F0FEFA28462821C4F2020140F8041F6E
:101EC0000921C0E90116C6604FF4806101614FF439
:101ED000805141614FF4804181614FF48071C0E9CC
:101EE0000716466200F0C8FD08B1FFF729F8281D63
:101EF000E064EC6343E000BF40F2380144F2E040AC
:101F0000C2F20041C5F602000A68002A02F101028D
:101F10000A600BD150F8081C41F0200140F8081C61
:101F200050F8081C01F0200101910199016840F26C
:101F3000004441F0010101600168C5F6020401F0AE
:101F4000010101910199016841F0020101600068FD
:101F500002AD00F002000190019830200290A4F53B
:101F600080602946032603960027049701F0A0FA13
:101F700020462946CDE90266049701F099FA12201D
:101F80000021002201F080FC122001F069FC07B062
:101F9000F0BD000000000000F0B190F835100229FB
:101FA00018D180B540F20F420168C4F2020291429A
:101FB00014DC6F23C4F20203994225DC3F23C4F2F0
:101FC000020399423CDC1023C4F2020399425DD023
:101FD000282357E0802141650120704740F26F437C
:101FE000C4F2020399421BDC40F23F43C4F20203F5
:101FF00099422DDC40F21043C4F20203994245D0CD
:1020000040F228433EE000BF9F23C4F202039942FE
:1020100028DC7023C4F20203994237D0882331E0D0
:1020200040F29F43C4F20203994223DC40F2704322
:10203000C4F20203994229D040F2884322E000BF53
:102040004023C4F20203994220D058231AE000BF73
:1020500040F24043C4F20203994217D040F2584381
:1020600010E000BFA023C4F2020399420ED0B823AF
:1020700008E000BF40F2B843C4F20203994205D021
:1020800040F2A043C4F20203994275D191424FF04D
:10209000040280F8352011DC6F20C4F20200814276
:1020A00022DC3F20C4F20200814239DC1020C4F25D
:1020B0000200814259D0282054E000BF40F26F4016
:1020C000C4F2020081421BDC40F23F40C4F2020035
:1020D00081422DDC40F21040C4F20200814244D023
:1020E00040F228403EE000BF9F20C4F2020081423F
:1020F00028DC7020C4F20200814236D0882031E012
:1021000040F29F40C4F20200814223DC40F2704062
:10211000C4F20200814228D040F2884022E000BF91
:102120004020C4F2020081421FD058201AE000BFB4
:1021300040F24040C4F20200814216D040F25840C2
:1021400010E000BFA020C4F2020081420DD0B820F0
:1021500008E000BF40F2B840C4F20200814204D05F
:1021600040F2A040C4F202008142086820F0010061
:102170000860002080BD00BF0A6822F001020A60EA
:1021800045F25742C5F6020291420A6822F00E0259
:102190000A600FDC45F22F42C5F60202914219DCBB
:1021A00045F20842C5F60202914229D045F21C428E
:1021B00022E000BF45F27F42C5F60202914213DCE5
:1021C00045F25842C5F60202914219D045F26C42DE
:1021D00012E000BF45F23042C5F6020291420FD034
:1021E00045F2444208E000BF45F29442C5F60202BF
:1021F000914205D045F28042C5F6020291421AD1C1
:10220000D0E9181CD0E916E30A6822F480720A604B
:1022100003F01F01012202FA01F1CEF80410816ED1
:10222000CCF80410C16E31B10A6822F480720A60E1
:10223000D0E91C124A60012180F83510016D00229E
:10224000002980F8342094D08847002080BD000009
:102250002DE9F04782B00021019140F2180148F2C7
:10226000B513C2F20041C1F64E33856D40F26F499D
:102270000A680168C4F202092E68A2FB03284945D6
:102280002A6815DC9F22C4F2020291422CDC5722FC
:10229000C4F20202914251DC1022C4F202029142C5
:1022A0007BD02822C4F20202914276D040226FE015
:1022B00045F22F43C5F60203994229DC40F2B743A9
:1022C000C4F20203994245DC40F27042C4F20202B9
:1022D000914262D040F28842C4F2020291425CD044
:1022E00040F2A04254E000BF40F22742C4F2020292
:1022F00091423FDCA022C4F2020291424DD0B822AA
:10230000C4F20202914248D040F2104240E000BFC5
:1023100045F26B43C5F60203994275DC45F2304342
:10232000C5F60203994200F0828045F24443C5F6A7
:10233000020399427BD045F2584373E05822C4F21D
:102340000202914229D07022C4F20202914224D0AA
:1023500088221DE040F2B843C4F2020399421CD027
:1023600045F20843C5F60203994260D045F21C438A
:1023700058E000BF40F22842C4F2020291420CD061
:1023800040F24042C4F20202914206D040F258426A
:10239000C4F20202914240F05383C26D082302F05E
:1023A0001F0240F20F4A9340C4F2020A334200F087
:1023B000DE8051454FF0040412DC6F27C4F202079F
:1023C000B9426DDC3F27C4F20207B94200F39C809A
:1023D0001027C4F20207B94200F0BD802827B5E0FB
:1023E000494569DC40F23F47C4F20207B94200F3B5
:1023F000938040F21047C4F20207B94200F0AB806C
:1024000040F22847A2E000BF45F26C43C5F6020344
:1024100099420CD045F28043C5F60203994206D09A
:1024200045F29443C5F60203994240F009830B68D4
:10243000C76D07F01F070426BE40164218BF13F0F1
:10244000040423D10226BE40164218BF13F0020432
:1024500042D1FA40120740F1F38213F0080200F073
:10246000EF820A6822F00E020A60012101FA07F2E7
:102470006A60416580F83510C16C00294FF0000298
:1024800080F8342040F0D882DAE200BF1A046E608F
:1024900034D49A0635D40A6822F004020A6030E087
:1024A0009F27C4F20207B94240DC7027C4F202073A
:1024B000B94250D0882749E040F29F47C4F2020752
:1024C000B9423BDC40F27047C4F20207B94242D045
:1024D00040F288473AE000BF1A046E6000F1B4820F
:1024E0009A0600F1B5820A6822F00A020A60012108
:1024F00080F83510002180F83410A9E2D90300F1EA
:10250000A982016C97E200BF4027C4F20207B942DA
:1025100021D058271AE000BF40F24047C4F202071A
:10252000B94218D040F2584710E000BFA027C4F2CB
:102530000207B9420FD0B82708E000BF40F2A04719
:10254000C4F20207B94206D040F2B847C4F202070B
:10255000B94218BF08240F68274208D00F6827F037
:1025600004070F60AB60436D43F001034365012333
:10257000934033426FD0514510DC6F27C4F20207FD
:10258000B9421DDC3F27C4F20207B94234DC1027F0
:10259000C4F20207B94256D028274FE049451BDC58
:1025A00040F23F47C4F20207B9422DDC40F2104727
:1025B000C4F20207B94246D040F228473EE000BFCD
:1025C0009F27C4F20207B94228DC7027C4F2020731
:1025D000B94238D0882731E040F29F47C4F2020761
:1025E000B94223DC40F27047C4F20207B9422AD054
:1025F00040F2884722E000BF4027C4F20207B942F8
:1026000021D058271AE000BF40F24047C4F2020729
:10261000B94218D040F2584710E000BFA027C4F2DA
:102620000207B9420FD0B82708E000BF40F2A04728
:10263000C4F20207B94206D040F2B847C4F202071A
:10264000B94240F00D824F693F0604D5AB60436D3F
:1026500043F0020343650423934033426FD0514556
:1026600010DC6F27C4F20207B9421DDC3F27C4F219
:102670000207B94234DC1027C4F20207B94256D02F
:1026800028274FE049451BDC40F23F47C4F20207D0
:10269000B9422DDC40F21047C4F20207B94246D0DD
:1026A00040F228473EE000BF9F27C4F20207B9422C
:1026B00028DC7027C4F20207B94238D0882731E0FD
:1026C00040F29F47C4F20207B94223DC40F2704750
:1026D000C4F20207B9422AD040F2884722E000BF84
:1026E0004027C4F20207B94221D058271AE000BFA0
:1026F00040F24047C4F20207B94218D040F25847AE
:1027000010E000BFA027C4F20207B9420FD0B827DB
:1027100008E000BF40F2A047C4F20207B94206D069
:1027200040F2B847C4F20207B94240F0A1810F68F5
:10273000BF0704D5AB60436D43F00403436510232A
:1027400003FA02F2324200F0828051454FF0080352
:1027500010DC6F27C4F20207B9421DDC3F27C4F228
:102760000207B94234DC1027C4F20207B94256D03E
:1027700028274FE049451BDC40F23F47C4F20207DF
:10278000B9422DDC40F21047C4F20207B94246D0EC
:1027900040F228473EE000BF9F27C4F20207B9423B
:1027A00028DC7027C4F20207B94238D0882731E00C
:1027B00040F29F47C4F20207B94223DC40F270475F
:1027C000C4F20207B9422AD040F2884722E000BF93
:1027D0004027C4F20207B94221D058271AE000BFAF
:1027E00040F24047C4F20207B94218D040F25847BD
:1027F00010E000BFA027C4F20207B9420FD0B827EB
:1028000008E000BF40F2A047C4F20207B94206D078
:1028100040F2B847C4F20207B94218BF04230F6858
:102820001F4214D0AA600A6852030A6808D4D2056D
:1028300008D40A6822F008020A60016C21B906E097
:10284000110351D4016C11B1044688472046C16D73
:1028500001F01F02202101FA02F3334200F0AF80A1
:1028600001681027514511DC6F26C4F20206B142FF
:102870001EDC3F26C4F20206B14239DC1026C4F247
:102880000206B1425BD0282654E000BF49451BDC5C
:1028900040F23F46C4F20206B14231DC40F210463B
:1028A000C4F20206B1424AD040F2284642E000BFDC
:1028B0009F26C4F20206B1422CDC7026C4F2020646
:1028C000B1423CD0882635E040F29F46C4F2020671
:1028D000B14227DC40F27046C4F20206B1422ED06B
:1028E00040F2884626E000BF816C0029ACD1AEE7FB
:1028F0004026C4F20206B14221D058261AE000BF99
:1029000040F24046C4F20206B14218D040F25846A6
:1029100010E000BFA026C4F20206B1420FD0B826D4
:1029200008E000BF40F2A046C4F20206B14206D061
:1029300040F2B846C4F20206B14218BF02270E6840
:102940003E423CD0AB6090F83530042B0B681DD173
:1029500023F016030B604B6923F080034B61036C7B
:102960000BB9836C1BB10B6823F008030B603F218C
:102970009140A960012180F83510016D00294FF0C8
:10298000000280F8342057D15AE000BF5A030A6889
:102990000ED4D2050ED40A6822F010020A6001217A
:1029A00080F83510002180F83410C16B21B906E0A1
:1029B000110351D4C16B11B1044688472046416DC3
:1029C00000293DD0416DC90734D0042180F835106D
:1029D00001684FEA98220B6823F001030B60019B0A
:1029E0000133019393421AD80B68DB0717D0019B80
:1029F00001330193934212D80B68DB070FD0019B80
:102A00000133019393420AD80B68DB0707D0019B7F
:102A100001330193934202D80B68DB07DFD10968C9
:102A2000C9074FF0030108BF012180F835100021CC
:102A300080F83410C16C19B102B0BDE8F047084706
:102A400002B0BDE8F08700BFD90301D4416CF2E7C2
:102A5000C16BF0E7816CEEE7416C0029ACD1AEE7C9
:102A60000B680423934033427FF4F9AD67E600BF5F
:102A70000B6864E6000000002DE9F041044600F018
:102A80001BFEFCB140F26F4805462068C4F2020804
:102A900040451BDC9F21C4F20201884232DC5721F1
:102AA000C4F20201884259DC1021C4F202018842BA
:102AB00000F083802821C4F20201884200F07D806A
:102AC000402175E00120BDE8F08100BF45F22F41B3
:102AD000C5F60201884229DC40F2B741C4F2020186
:102AE000884247DC40F27041C4F20201884264D05F
:102AF00040F28841C4F2020188425ED040F2A04117
:102B000056E000BF40F22741C4F20201884241DC96
:102B1000A021C4F2020188424FD0B821C4F20201C0
:102B200088424AD040F2104142E000BF45F26B417A
:102B3000C5F60201884200F3B38045F23041C5F684
:102B40000201884200F0BF8045F24441C5F602010F
:102B5000884200F0B88045F25841AFE05821C4F2F5
:102B60000201884229D07021C4F20201884224D097
:102B700088211DE040F2B841C4F2020188421CD015
:102B800045F20841C5F60201884200F09C8045F2FA
:102B90001C4193E040F22841C4F2020188420CD06B
:102BA00040F24041C4F20201884206D040F258414E
:102BB000C4F20201884240F01B81022184F83510E2
:102BC000002184F83410016821F00101016000BF88
:102BD00020680168C9070DD000F06EFD401B062873
:102BE000F6D320206065032084F835000120BDE87D
:102BF000F08100BF48F23F0204F108060168CFF6F9
:102C00001062114065694CCE1143A2691943E36912
:102C10003143266A0D43616A2B43042943EA0603C4
:102C200043EA020303D1D4E90B652E43334341F257
:102C30000006C5F600463668B6F1005F0FD365683A
:102C4000A5F129061F2E00F235820127B7403F2645
:102C5000CCF2C036374200F02D8243F4801303607B
:102C60000429436923F0070341EA030140F0DC80B3
:102C7000D4E90A53002B41EA050100F0D580B2F5F2
:102C8000005F00F0B780002A40F0C080022D00F005
:102C9000C080012D00F0B480002D00F0BA80C3E0A8
:102CA00045F26C41C5F6020188420CD045F28041E4
:102CB000C5F60201884206D045F29441C5F60201EC
:102CC000884240F0958004F1080E022184F8351006
:102CD000002184F834100168A3699EE80450A2F131
:102CE0008005E769B5FA85F566696D09402A4FEAFE
:102CF000853543EA07026FF3101142EA060208BF66
:102D0000102541EADC0142EA0E02236A294341EA26
:102D1000D20141EA131140F80819C0B2CD2148434D
:102D20003C2101EA9020E0652046FDF7EDFEE16DD3
:102D3000012201F01F0102FA01F1416020684045C3
:102D400000F381809F21C4F20201884214DC5721E4
:102D5000C4F20201884227DC1021C4F20201884239
:102D600000F0C7802821C4F20201884200F0C1802F
:102D70004021C4F20201B9E040F22741C4F202014D
:102D8000884221DCA021C4F20201884200F0B18017
:102D9000B821C4F20201884200F0AB8040F2104139
:102DA000C4F20201A2E000BF5821C4F2020188422D
:102DB00000F09F807021C4F20201884200F09980E7
:102DC0008821C4F2020191E040F22841C4F20201DC
:102DD000884200F08E8040F24041C4F202018842F5
:102DE00000F0878040F25841C4F202017EE000BF4B
:102DF0004020F7E6032D17D8DFE805F00E0B0E0292
:102E0000A3F1C072B2FA82F2520904E0032D03D397
:102E10000AD1C3F300623AB140206065012084F812
:102E20003500BDE8F08100BF41612046FDF76CFE32
:102E3000E16D3F2201F01F0102FA01F1816020687B
:102E400040457FF77FAF45F22F41C5F6020188422A
:102E500016DC40F2B741C4F20201884226DC40F29F
:102E60007041C4F20201884243D040F28841C4F26A
:102E7000020188423DD040F2A041C4F2020135E097
:102E800045F26B41C5F6020188421FDC45F2304134
:102E9000C5F6020188422CD045F24441C5F6020134
:102EA000884226D045F258411EE000BF40F2B841AA
:102EB000C4F2020188421CD045F20841C5F6020165
:102EC000884216D045F21C410EE000BF45F26C412D
:102ED000C5F6020188420CD045F29441C5F60201C4
:102EE000884206D045F28041C5F60201884240F092
:102EF000D98045F2574C45F6FC0EC5F6020CC5F6D6
:102F0000020E60450EDC45F22F41C5F602018842F3
:102F100018DC45F20841C5F60201884228D045F286
:102F20001C4121E045F27F41C5F60201884213DCD5
:102F300045F25841C5F60201884219D045F26C416C
:102F400012E000BF45F23041C5F6020188420FD0C1
:102F500045F2444108E000BF45F29441C5F6020144
:102F6000884205D045F28041C5F60201884247D12A
:102F700000F0FC014CF6CD420839CCF6CC42A1FB66
:102F80000212AEF1FC05AEF17C061309A26803F053
:102F90001F01802A4FF0010205EB8305256602FA26
:102FA00001F26666A26605D100206060286072604A
:102FB0001EE000BF6368D9B25F1E072F29607260F0
:102FC00016D84E1E082E19D260450EF1440237DC89
:102FD00045F22F41C5F60201884241DC45F2084125
:102FE000C5F60201884251D045F21C414AE000BFBB
:102FF00000206067C4E91B0054E000BFE06E4CE0B5
:1030000000F0F8014AF6AB221039CAF6AA22A1FB59
:10301000021240F20F43C4F202030825110998423C
:1030200003F1AA060B4688BF05EB121340F6000514
:10303000B042C4F2020505F1800628BF0B46A5E7A1
:1030400045F27F41C5F60201884213DC45F2584142
:10305000C5F60201884219D045F26C4112E000BF6A
:1030600045F23041C5F6020188420FD045F2444195
:1030700008E000BF45F28041C5F60201884205D054
:1030800045F29441C5F6020188421BD10EEB830044
:103090000121E066B1402267616700210160D4E947
:1030A0001C01416000206065012184F83510BDE8F5
:1030B000F08100BFA5F14F07042F38BF43F4801300
:1030C000CDE500BF40F60000C4F2020000F1FC0EA6
:1030D00000F5A072DAE7000030B110B590F8344086
:1030E000012C03D1022010BD01207047012480F87B
:1030F000344090F83540012C2CD1022480F8354022
:1031000000244465D0F800C0DCF8004024F001043D
:10311000CCF800400446FDF78BFD40F20F4C2068D0
:10312000C4F2020C40F26F416045C4F2020119DCA6
:103130006F23C4F20203984226DC3F23C4F2020349
:1031400098423DDC1023C4F2020398425FD028234A
:1031500058E000BF4FF400614165002180F8341051
:10316000012010BD88421BDC40F23F43C4F2020341
:1031700098422DDC40F21043C4F20203984246D03C
:1031800040F228433EE000BF9F23C4F2020398426E
:1031900028DC7023C4F20203984238D0882331E03F
:1031A00040F29F43C4F20203984223DC40F2704392
:1031B000C4F2020398422AD040F2884322E000BFC2
:1031C0004023C4F20203984221D058231AE000BFE2
:1031D00040F24043C4F20203984218D040F25843F0
:1031E00010E000BFA023C4F2020398420FD0B8231E
:1031F00008E000BF40F2B843C4F20203984206D090
:1032000040F2A043C4F20203984240F02F810368C9
:103210000B2262F344030360226C1AB10823026894
:103220001A430260884219DC9F22C4F202029042D3
:1032300032DC5722C4F20202904259DC1022C4F25E
:103240000202904200F096802822C4F202029042CC
:1032500000F090804022C4F2020289E045F22F4241
:10326000C5F6020290422DDC40F2B742C4F20202DF
:1032700090424BDC40F27042C4F20202904279D09C
:1032800040F28842C4F20202904273D040F2A0425F
:10329000C4F202026CE000BF40F22742C4F2020214
:1032A000904243DCA022C4F20202904262D0B822D3
:1032B000C4F2020290425DD040F21042C4F2020217
:1032C00056E000BF45F26B42C5F6020290423FDC79
:1032D00045F23042C5F6020290424BD045F24442DC
:1032E000C5F60202904245D045F258423EE000BF8A
:1032F0005822C4F2020290423CD07022C4F2020270
:10330000904237D08822C4F2020231E040F2B84243
:10331000C4F2020290422DD045F20842C5F60202E4
:10332000904227D045F21C4220E000BF40F22842E4
:10333000C4F2020290421DD040F24042C4F20202A6
:10334000904217D040F25842C4F2020210E000BF8F
:1033500045F26C42C5F6020290420BD045F294420F
:10336000C5F60202904205D045F28042C5F602023F
:10337000904274D1236E1A68D20303D51A6842F4BE
:1033800080721A60E36E1BB11A6842F480721A6090
:10339000604511DC6F21C4F2020188421EDC3F212E
:1033A000C4F20201884235DC1021C4F202018842D5
:1033B00055D0282150E000BF88421BDC40F23F413D
:1033C000C4F2020188422DDC40F21041C4F2020135
:1033D000884244D040F228413EE000BF9F21C4F221
:1033E0000201884228DC7021C4F20201884236D0F2
:1033F000882131E040F29F41C4F20201884223DC7F
:1034000040F27041C4F20201884228D040F2884163
:1034100022E000BF4021C4F2020188421FD058219F
:103420001AE000BF40F24041C4F20201884216D0C7
:1034300040F2584110E000BFA021C4F202018842CE
:103440000DD0B82108E000BF40F2B841C4F202013B
:10345000884204D040F2A041C4F2020188420168CF
:1034600041F001010160002010BD00BF026805238A
:1034700063F343020260226C002A3FF4D3AE0423BC
:10348000CDE6000000000000B0B5044600F014F9DD
:1034900040F210010546C2F20041621C097818BFD3
:1034A0000C4400BF00F008F9401BA042FAD3B0BDA5
:1034B0002DE9F04F85B00F680390002F00F0E680F3
:1034C000039842F2004600F126428C4602F1FF7258
:1034D000C5F602060A21B0424FEAB22600F12000EA
:1034E00008BF09210090092E38BF4FEAB2210024FD
:1034F00000264FF000080191CDF808C00CE000BF95
:1035000008F10108DCF8007037FA08F106F102064C
:1035100004F1040400F0BA80012000FA08F217EA6E
:103520000209EDD0DCF804A003200AF0030B00FA36
:1035300006F5ABF10107012F12D803988768DCE983
:1035400002C3AF43B3403B438360CAF300174368F1
:1035500023EA020207FA08F31A43426008E000BFB8
:10356000DCF808C0BBF1030F08BFBCF1010F2DD080
:1035700003994FEA480EE8430CFA06F3CA68BBF118
:10358000020F22EA050242EA0302CA601AD1834608
:103590006FF0030000EA5802009804F01C050F21A8
:1035A00050F802C001FA05FA02992CEA0A078C4683
:1035B0000B69AB403B438350D1F804A058460AF056
:1035C000030B0BE0DDF808C008E000BF4FF0030B71
:1035D000B6460BFA06F2DDF808C0D043039B1AF496
:1035E000403F1A6802EA00010BFA0EF241EA0201BA
:1035F00019603FF485AF44F2F44040F20845C5F647
:103600000200C5F60005016841F002010160016891
:103610000F2001F00201049128F00301049A04F044
:103620000C024B5900FA02F70198BB4300FA02F270
:103630004FF0B0401A434A510168DCF8042041EAD7
:103640000903D70258BF21EA09039702036040F239
:103650000400C5F60000016841EA090358BF21EAE9
:10366000090397030360D0F8801041EA090358BFAB
:1036700021EA0903D203C0F88030C16F41EA09038F
:1036800058BF21EA0903C3673AE700BF05B0BDE8A8
:10369000F08F000000000000002A08BF09048161CB
:1036A000704700000000000041F20000C5F6004035
:1036B0000068000C7047000040F64C20C2F2004049
:1036C000006870470000000040F2100040F64C21F6
:1036D000C2F20040C2F2004100780A68104408605B
:1036E000704700000000000080B5032000F0FCF8E7
:1036F00001F0D6FB44F2184148F21E63C5F6020100
:10370000C0F600030A68C2F303229A5C096801F05C
:103710000F0102F01F02595CD04040F21C02C2F2BD
:10372000004201F01F0120FA01F1116040F218017E
:10373000C2F2004108600F2000F00AF800281CBF08
:10374000012080BD00F07CF8002080BD000000005A
:10375000B0B540F21005C2F200452978F1B1044637
:1037600040F21800C2F200404FF47A72B2FBF1F15D
:103770000068B0FBF1F002F0E7FA0F2C01464FF0C1
:1037800001000AD8002918BFB0BD4FF0FF30002259
:10379000214600F079F800206C60B0BD0120B0BD7A
:1037A00010B54EF6A05E4378CEF2000E90F800C041
:1037B0004EF8083CDEF8003023F00103CEF800306C
:1037C00043684EF8043C037BC27A817A447B12063C
:1037D00042EA0372837B42EAC141C27B41EA8441EF
:1037E000447A41EA4341007A41EA024141EA042134
:1037F00041EA400040EA0C00CEF8000010BD000095
:103800004EF62450CEF20000BFF35F8F016821F422
:103810008031016000210167704700000000000056
:103820004EF6245140F00100CEF20001086708680E
:1038300040F480300860BFF34F8FBFF36F8F704745
:1038400081B044F2F440C5F60200016841F0020183
:103850000160006800F002000090009801B070471D
:10386000002848BF704700F01F01012202FA01F151
:103870004EF20012C0F34A10CEF2000242F82010BD
:10388000704700000000000070B54EF60C5C4FF071
:10389000FF36CEF2000C00F1604505F56445DCF81A
:1038A0000030C3F3022E8EF00703042B28BF04233D
:1038B000BEF1030406FA03F321EA030100F00F034B
:1038C00038BF0024043B0028634406FA04F048BFD4
:1038D00003F10C05A14022EA000008430001287012
:1038E00070BD0000000000004EF60C514FF6FF03C3
:1038F000CEF200010A681A4060F30A2242F08060AA
:1039000040F0FD7008607047B0B544F60C05C5F690
:10391000020529684907296806D401F00701081A39
:1039200018BF0120B0BD00BF21F007010843286087
:10393000FFF7C2FE044600BF55F8080C800407D408
:10394000FFF7BAFE001BB0F57A7FF5D90120B0BDB4
:103950000020B0BD0000000080B544F23041C5F643
:10396000020151F8083C51F8082C51F804CCC2F37C
:10397000051E4A68BEF1000F1AD0C2F3CC0203F054
:10398000030300EE102A9FED3A1AB8EE400A20EE2B
:10399000010A9FED381ADFE803F00323110700BF87
:1039A00051F8302C92060DD49FED331A18E000BF69
:1039B00000218160C0E9001180BD00BF9FED2F1A7A
:1039C0000EE000BF51F8302C49F20003C0F2D033B2
:1039D000C2F3C10223FA02F201EE102AB8EE411A34
:1039E0000A689FED273A6FF35F2202EE102A5FEA22
:1039F000CC7203FE000A03EE10EA0A68B8EE422A0F
:103A0000C2F34622B8EE433A013230EE020AB7EE74
:103A1000002A81EE031A30EE020A21EE000A01EEBE
:103A2000102AB8EE411A80EE011ABCEEC11A80EDE0
:103A3000001A0A68C2F30642013201EE102AB8EEFB
:103A4000411A80EE011ABCEEC11A80ED011A096814
:103A5000C1F30661013101EE101AB8EE411A80EE91
:103A6000010ABCEEC00A10EE101A816080BD00BFD2
:103A7000000000390024744A0024744C20BCBE4B62
:103A8000000000000000000080B544F2384EC5F68A
:103A9000020E5EF8103C5EF8101C5EF80C2CC1F3B0
:103AA000053CDEF80410BCF1000F19D0C9089FEDE9
:103AB0003C1AD20601EAE27103F003026FF35F31B0
:103AC00000EE101AB8EE400ADFE802F002221022DF
:103AD0005EF8381C89060DD49FED331A18E000BF3C
:103AE00000218160C0E9001180BD00BF9FED2D1A4B
:103AF0000EE000BF5EF8381C49F20002C0F2D0327E
:103B0000C1F3C10122FA01F101EE101AB8EE411A17
:103B1000DEF800109FED253A6FF35F2102EE101AD8
:103B2000DEF80010C1F34621B8EE422A013100EE62
:103B3000032A00EE10CAB7EE003AB8EE400A81EE52
:103B4000000A32EE031A20EE010A01EE101AB8EE56
:103B5000411A80EE011ABCEEC11A80ED001ADEF89F
:103B60000010C1F30641013101EE101AB8EE411AFE
:103B700080EE011ABCEEC11A80ED011ADEF80010C9
:103B8000C1F30661013101EE101AB8EE411A80EE60
:103B9000010ABCEEC00A10EE101A816080BD00BFA1
:103BA0000024744A20BCBE4B0024744C0000003931
:103BB00080B544F2404EC5F6020E5EF8183C5EF841
:103BC000181C5EF8142CC1F3055CDEF80410BCF17F
:103BD000000F19D0C9089FED3C1AD20501EAE27125
:103BE00003F003026FF35F3100EE101AB8EE400AE3
:103BF000DFE802F0022210225EF8401C89060DD494
:103C00009FED331A18E000BF00218160C0E9001168
:103C100080BD00BF9FED2D1A0EE000BF5EF8401C76
:103C200049F20002C0F2D032C1F3C10122FA01F11F
:103C300001EE101AB8EE411ADEF800109FED253A99
:103C40006FF35F2102EE101ADEF80010C1F3462177
:103C5000B8EE422A013100EE032A00EE10CAB7EE98
:103C6000003AB8EE400A81EE000A32EE031A20EE66
:103C7000010A01EE101AB8EE411A80EE011ABCEEEC
:103C8000C11A80ED001ADEF80010C1F306410131BF
:103C900001EE101AB8EE411A80EE011ABCEEC11AFC
:103CA00080ED011ADEF80010C1F30661013101EE6A
:103CB000101AB8EE411A80EE010ABCEEC00A10EEEE
:103CC000101A816080BD00BF0024744A20BCBE4B26
:103CD0000024744C0000003910B584B0024641F64F
:103CE000FF7300209B1A70EB010329DB40F2FF33C6
:103CF0009B1A70EB010351DA82F480630B4300F0EE
:103D0000E58082F400630B4300F00E8182F4805260
:103D1000114340F0A98144F20041C5F60201086D4B
:103D2000C0F30232042A00F2988148F20000C0F287
:103D3000BB00DFE812F00D010F01270199013101ED
:103D400047F6FF739B1A70EB010353DA82F40043CA
:103D50000B4300F0DB8082F480330B4300F00481DE
:103D600082F40022114340F07F8144F20041C5F605
:103D70000201886DC0F301420020DFE812F0EB0081
:103D800005000D01750100BF0868800040F16581E4
:103D900001A8FFF70DFF039804B010BD82F48073F3
:103DA0000B4353D082F40072114340F05D8144F222
:103DB0000041C5F60201086DC0F38212042A00F228
:103DC0004C8148F20000C0F2BB00DFE812F0C100F5
:103DD000C300DB004D010500C86C0A68520700F003
:103DE0004052086802D5002A00F0DE80C00500F1CC
:103DF000EF80F7E082F400530B434FD082F480420F
:103E0000114340F0318144F20044C5F60204A06D34
:103E1000C0F30270052800F22081DFE810F00700EF
:103E2000190103010D01F700270100BF00F0E0FFB9
:103E3000216A48F21E62C0F60002C1F30211515C11
:103E400001F01F01C84004B010BD00BF44F20041A2
:103E5000C5F60201086D00F00702042A00F2FD8099
:103E600048F20000C0F2BB00DFE812F072007400FC
:103E70008C00FE00060000BFC86C0A68520700F004
:103E80004052086802D5002A00F08E80C00540F13B
:103E9000A980B2F1805F00F09E80A3E044F2004070
:103EA000C5F60200016DC1F30241052900F2D5807B
:103EB000DFE811F00600D000BA00C800AE00DE0056
:103EC00004B0BDE8104000F0BBBF00BF44F20041A9
:103ED000C5F60201886DC0F34252042A00F2BD808B
:103EE00048F20000C0F2BB00DFE802F032344CBE02
:103EF000040000BFC86C0A68520700F0405208680E
:103F000040F16480002A4FD060E000BF44F20041DD
:103F1000C5F60201086DC0F301720020DFE802F06F
:103F2000021874A40868A4E044F20041C5F6020136
:103F3000886DC0F30262042A00F28F8048F200000C
:103F4000C0F2BB00DFE802F004061E90280000BFAC
:103F5000086811E00868000140F17F8001A8FFF7C0
:103F600093FD019804B010BD44F20040C5F6020074
:103F7000C16C0068C90321D480016ED501A8FFF788
:103F8000EBFC70E00868800067D501A8FFF710FE21
:103F9000019804B010BD00BFC86C0A68520700F059
:103FA0004052086812D58AB9C0F3C10049F2000135
:103FB000C0F2D03121FA00F004B010BD00014CD5A0
:103FC00001A8FFF761FD039804B010BDC00509D535
:103FD000B2F1805F06D140F60010C0F23D0004B09F
:103FE00010BD00BF0868B2F1005F00F400314FF06F
:103FF000000004BF47F64000C0F27D10002908BF52
:10400000084604B010BD00BF086824E0206800E046
:10401000006840F60011C005C0F23D0101EAE07001
:1040200004B010BD206800E00068800015D501A82C
:10403000FFF7BEFD17E000BF206840070DD52068E0
:10404000B2E700BF0168490707D50068ACE700BFC9
:10405000206800E00068000102D4002004B010BD18
:1040600001A8FFF711FD029804B010BD206800E020
:10407000006847F640018003C0F27D1101EAE0705C
:1040800004B010BD000000002DE9F0470446C078E0
:1040900044F22C480007C5F6020828D5A06E4FEA66
:1040A000305103292AD8DFE801F0030B131B00BFAE
:1040B000D8F8001041F40031C8F8001010E000BF3B
:1040C00004F10800022103F06BFD064680B906E00A
:1040D00004F12800022103F0F7FD064640B9A06E66
:1040E000D8F8241021F440110843C8F82400002611
:1040F0006078C00706D135462FE000BF0126607802
:10410000C007F8D0A06D042858D83546DFE800F085
:1041100004140E0B0B0000BFD8F80000354640F425
:104120000030C8F800002F46C5B90DE004F12800A2
:10413000002103F0C9FD04E004F10800002103F0B0
:104140002FFD05462F464DB9D8F82400A16D20F06B
:10415000070000250843C8F8240037466078800728
:1041600031D5E06D4FEAB01004285FD8DFE800F0E9
:1041700004140E0A0A0000BFD8F8000040F4003012
:10418000C8F800002E46FDB90EE000BF04F128007B
:10419000002103F099FD04E004F10800002103F080
:1041A000FFFC05462E467DB9D8F82400E16D20F4C9
:1041B000E07000250843C8F8240004E00125012729
:1041C00060788007CDD43E466078400733D5D4F878
:1041D000A8004FEA7050042860D8DFE800F003130D
:1041E0000D090900D8F8000040F40030C8F80000BC
:1041F000A9460DBB0EE000BF04F12800002103F02A
:1042000063FD04E004F10800002103F0C9FC054649
:10421000A9468DB9D8F82C00D4F8A81020F4600075
:1042200000250843C8F82C0005E000BF0125012641
:1042300060784007CBD4B1466078000734D5D4F815
:10424000AC004FEA306004285ED8DFE800F00313CA
:104250000D090900D8F8000040F40030C8F800004B
:104260002F4615BB0EE000BF04F12800002103F02B
:104270002BFD04E004F10800002103F091FC054649
:104280002F4695B9D8F82C00D4F8AC1020F0E06097
:1042900000250843C8F82C0006E000BF01254FF0B8
:1042A000010960780007CAD44F46E078800730D50E
:1042B000E06C4FEA3010032820D8DFE800F0090353
:1042C000150900BFD8F8000040F40030C8F800001D
:1042D0002E46ADB9D8F82000E16C20F03000002562
:1042E0000843C8F8200014E004F10800022103F09C
:1042F00057FC05462E461DB9ECE700BF01250126F7
:104300006078C00609D434E001250127E0788007F1
:10431000CED43E466078C0062BD5206E4FEA3030B2
:10432000042839D8DFE800F004140E0A0A0000BFA0
:10433000D8F8000040F40030C8F800002F46CDB98E
:104340000EE000BF04F12800002103F0BDFC04E0F2
:1043500004F10800002103F023FC05462F464DB967
:10436000D8F82400216E20F4E04000250843C8F866
:10437000240037466078800635D5606E4FEA3040BD
:10438000052815D8DFE800F0041A0E04040400BF65
:104390002E46DDB91EE000BF0125012760788006AA
:1043A000EBD420E004F12800012103F08DFC0AE0A9
:1043B000012501266078400619D449E004F108007F
:1043C000012103F0EDFB05462E461DB16078400645
:1043D0000DD43DE0D8F82400616E20F4E0200025E3
:1043E0000843C8F824003E466078400630D5D4F82B
:1043F000B0004FEA307005280ED8DFE800F0031354
:10440000070303032F46ADB918E000BF04F12800ED
:10441000012103F059FC0AE001250127607800061C
:104420001AD43CE004F10800012103F0B9FB054671
:104430002F461DB1607800060ED430E0D8F82C006D
:10444000D4F8B01020F0E04000250843C8F82C0054
:1044500037466078000622D5206F58B1B0F1005F72
:104460000CD0B0F1805F37D1D8F8000040F40030B4
:10447000C8F800002E469DB908E000BF04F108000E
:10448000012103F08DFB05462E464DB9D8F82400D6
:10449000216F20F0405000250843C8F824003E4614
:1044A000E078C0071DD0A06C032855D8DFE800F0E5
:1044B00008024A08D8F8000040F40030C8F80000AC
:1044C000A9467DB9D8F82000A16C20F00300002592
:1044D0000843C8F8200004E001250126E078C00761
:1044E000E1D1B146A078400602D44F4618E000BFA3
:1044F000D8F8D40340F48070C8F8D403FFF7DCF890
:10450000064600BFD8F8D403C00507D4FFF7D4F897
:10451000801B6428F6D90325032701E02F46FDB14F
:104520002078C00700F06F80E06F4FEAF0000528A8
:104530004ED8DFE800F0035347030303002D2E4657
:1045400054D157E004F10800022103F029FB05468D
:10455000002DA946C6D1B5E701254FF00109C1E7F5
:10456000D8F84410D4F8B400414011F4407F11D081
:10457000D8F84410D8F8442042F48032C8F84420D7
:10458000D8F8442021F4407122F48032C8F8442045
:10459000C8F84410B0F5807F40F0E082FFF78CF857
:1045A000064641F2883A0325032700BFD8F84400A5
:1045B000800700F1D182FFF77FF8801B5045F5D9C5
:1045C000AEE700BF04F12800012103F07DFB0AE003
:1045D000012501262078800719D446E004F108005F
:1045E000012103F0DDFA05462E461DB12078800733
:1045F0000DD43AE0D8F82800E16F20F0380000250B
:104600000843C8F828003E46207880072DD5A06FC3
:1046100005280FD8DFE800F004140804040400BFE4
:104620002F46ADB918E000BF04F12800012103F0C6
:104630004BFB0AE0012501272078400719D447E009
:1046400004F10800012103F0ABFA05462F461DB125
:10465000207840070DD43BE0D8F82800A16F20F067
:10466000070000250843C8F828003746207840078F
:104670002ED5D4F8940005280ED8DFE800F00313F7
:10468000070303032E46ADB918E000BF04F128006C
:10469000012103F019FB0AE001250126207880069C
:1046A0001AD44BE004F10800012103F079FA054621
:1046B0002E461DB1207880060ED43FE0D8F82C009D
:1046C000D4F8941020F0070000250843C8F82C0007
:1046D0003E462078800631D5D4F890004FEA3070FD
:1046E00005280FD8DFE800F004140804040400BF14
:1046F0002F46ADB918E000BF04F12800022103F0F5
:10470000E3FA0AE001250127207840061AD44BE09D
:1047100004F10800002103F043FA05462F461DB1BD
:10472000207840060ED43FE0D8F82800D4F8901046
:1047300020F0E04000250843C8F8280037462078DC
:10474000400631D5D4F89C004FEAB02005280FD898
:10475000DFE800F004140804040400BF2E46ADB9DD
:1047600018E000BF04F12800022103F0ADFA0AE0CE
:1047700001250126207800061AD44EE004F1080035
:10478000002103F00DFA05462E461DB120780006E3
:104790000ED442E0D8F82C00D4F89C1020F4E0505D
:1047A00000250843C8F82C003E462078000634D582
:1047B000D4F8A0004FEA7030052815D8DFE800F0E3
:1047C000041A0E04040400BF2F46E5B12068010757
:1047D00027D4C1063ED4000355D477E004F1280065
:1047E000022103F071FA0AE0012501272068010780
:1047F000EFD516E004F10800002103F0D1F90546D9
:10480000002D2F46E2D1D8F82C00D4F8A01020F4C7
:10481000604000250843C8F82C003746206801078F
:10482000D7D5D4F88400B0F5805F09D104F1280011
:10483000022103F049FA002818BF0127D4F88400A8
:10484000D8F8281021F440510843C8F828002068FF
:10485000C106C0D5D4F89800B0F5807F09D104F125
:104860002800022103F030FA002818BF0127D4F8ED
:104870009800D8F82C1021F440710843C8F82C0097
:104880002068000322D5D4F8A400B0F5003F11D071
:10489000B0F5803F08D0002844D104F10800002181
:1048A00003F07EF905E000BF04F12800022103F0C7
:1048B0000BFA05462E4655B9D8F82C00D4F8A410AA
:1048C00020F4403000250843C8F82C003E46A0786C
:1048D00040072CD5D4F88800B0F5401F0BD0B0F5B8
:1048E000001F0BD0B0F5801F2AD1D8F8000040F48B
:1048F0000030C8F800002F46D5B907E004F12800C1
:10490000012103F0E1F905462F468DB9D8F82800BA
:10491000D4F8881020F4401000250843C8F8280077
:1049200005E000BF01250126A0784007D2D4374614
:10493000A078C00709D13E462168880015D532E02D
:1049400001250127A078C007F5D0206DB0F5803F84
:1049500010D018BBD8F8000040F40030C8F80000B0
:104960002E4685B1216888001DD460688A0326D44C
:1049700069E000BF04F10800022103F011F90546C7
:10498000002D2E46EED1D8F82000216D20F4803085
:1049900000250843C8F82000CDE700BF0125012607
:1049A00021688800E1D504F12800022103F08CF988
:1049B000002818BF0126D4E900108A0343D5D4F893
:1049C00080206FF0010303EB3223022B0BD34FEA5D
:1049D000322343B1012B40F0B980D8F8003043F4C2
:1049E0000033C8F800303DB3CA022FD4CA0037D410
:1049F0008A0240D44A0048D4CA0F55D109025DD476
:104A0000C10766D181076FD4410779D4010700F14E
:104A10008380C10600F18C80800607D504F1280050
:104A2000022103F051F9002818BF0125002D18BFFD
:104A300001252846BDE8F087D8F8283023F44073D4
:104A40001A43C8F828203546CA02CFD5D8F8242002
:104A5000636F22F000421A43C8F82420CA00C7D569
:104A600058F81C2CD4F8B83022F480421A4348F885
:104A70001C2C8A02BED5D8F82420E36E22F0807266
:104A80001A43C8F824204A00B6D558F81C2C22F442
:104A9000004248F81C2CD4F8BC2058F81C3C1A439F
:104AA00048F81C2CCA0FA9D0D8F82020636D22F03A
:104AB00040521A43C8F820200902A1D5D8F828107E
:104AC000D4F88C2021F440011143C8F82810C10704
:104AD00098D004F10800002103F062F8002818BF04
:104AE0000546606881078FD504F10800012103F0B5
:104AF00057F8002818BF0546606841077FF586AF64
:104B000004F10800022103F04BF8002818BF054605
:104B1000606801077FF57DAF04F12800002103F0F4
:104B2000D3F8002818BF05466068C1067FF574AF4A
:104B300004F12800012103F0C7F8002818BF05463A
:104B4000606880063FF56AAF70E700BF0125CA02C2
:104B50007FF54CAF7AE700BFD4F8B4004FF6CF73BF
:104B600058F81C2CC0F2FF0300F4407122F47C5270
:104B700003EA10136FF31F30B1F5407F08BF1A43EB
:104B8000002548F81C2CD8F844100843C8F8440005
:104B9000FFF7ABBC000000002DE9F04381B0002816
:104BA00000F0208142F200090446C5F20029D9F83C
:104BB000000000F00F0081420DD9D9F8000020F06C
:104BC0000F000843C9F80000D9F8000000F00F00FA
:104BD000884240F00781206844F218464207C5F633
:104BE00002060AD52269336803F070039A4204D999
:104BF000336823F070031A43326002070AD56269F2
:104C0000736803F070039A4204D9736823F0700349
:104C10001A437260C2060AD5A269736803F4E0639E
:104C20009A4204D9736823F4E0631A4372608206DF
:104C30000AD5E269B36803F070039A4204D9B368F5
:104C400023F070031A43B26010F002020AD0E36846
:104C5000376807F00F07BB4204D9376827F00F0702
:104C60003B433360C3073FD0306820F47062D4E91F
:104C700001031A433260012856F8182C0AD0032881
:104C800004D002280AD192030BD4ABE0920108D4DD
:104C9000A8E000BFD20504D4A4E000BF520740F151
:104CA000A180884656F8081C21F00701084346F801
:104CB000080CFEF701FD054641F2883756F8080C4E
:104CC000616800F03800B0EBC10F09D0FEF7F4FCCA
:104CD000401BB842F2D9032001B0BDE8F08300BF09
:104CE0002068414600F0020252B1E268336803F0E6
:104CF0000F039A4204D2336823F00F031A43326041
:104D0000D9F8002002F00F0291420CD2D9F800200D
:104D100022F00F020A43C9F80020D9F8002002F05F
:104D20000F028A425ED141070AD52169326802F03A
:104D30007002914204D2326822F070021143316055
:104D400001070AD56169726802F07002914204D2CB
:104D5000726822F0700211437160C1060AD5A16920
:104D6000726802F4E062914204D2726822F4E06256
:104D70001143716080060AD5E069B16801F07001E5
:104D8000884204D2B16821F070010843B06000F09D
:104D900087F8316848F21E62C0F60002C1F30321B1
:104DA000515C336803F00F0301F01F01D25C20FA5D
:104DB00001F102F01F0040F21C02C2F2004221FA8F
:104DC00000F0106040F2140040F21802C2F20040FD
:104DD000C2F200420068116001B0BDE8F043FEF786
:104DE000B7BC00BF012001B0BDE8F08300000000A7
:104DF00080B500F055F844F2184148F21E63C5F63C
:104E00000201C0F600030A68C2F303229A5C096833
:104E100001F00F0102F01F02595C20FA02F201F0CA
:104E20001F0040F21C01C2F2004122FA00F00860AB
:104E300040F21801C2F200410A6080BD000000008B
:104E400080B500F02DF844F2184C48F21E63C5F608
:104E5000020CC0F60003DCF80020C2F303229A5CC7
:104E6000DCF8001001F00F0102F01F02595CD04085
:104E700040F21C02C2F2004201F01F0120FA01F1CF
:104E8000116040F21802C2F200421060DCF8040027
:104E9000C0F30210185C00F01F0021FA00F080BD82
:104EA00044F20041C5F602010869C0F3C2000328BC
:104EB00016D002280ED0002832D10868800649F2A8
:104EC0000000C0F2D03058BF70470968C1F3C1017B
:104ED000C840704747F64000C0F27D10704700BFE1
:104EE0008B6A886AD1F82CC04A6BC0F30510E8B110
:104EF000C2F3CC0203F0030300EE102A9FED2A1A3E
:104F0000B8EE400A20EE010A9FED281ADFE803F010
:104F1000022110210A6892060ED49FED261A18E08D
:104F200040F60010C0F23D00704700BF00207047FF
:104F30009FED1F1A0DE000BF0A6849F20003C0F29E
:104F4000D033C2F3C10223FA02F201EE102AB8EE06
:104F5000411A0A6B9FED183A6FF35F2202EE102A96
:104F60005FEACC7203FE000A03EE100A086BB8EE8B
:104F7000422AC0F34620B8EE433A013030EE020A2E
:104F8000B7EE002A81EE031A30EE020A21EE000A83
:104F900001EE100AB8EE411A80EE010ABCEEC00A1A
:104FA00010EE100A704700BF000000390024744A58
:104FB00020BCBE4B0024744C000000000000000028
:104FC00070B3F0B581B00446007844F20046C007E3
:104FD000C5F6020626D12078800740F1C2803069EC
:104FE00010F03801B06A3FD0182908BF5FEA80701E
:104FF0003AD0E0683168002862D021F019010843F6
:105000003060FEF759FB05463068400748D4FEF78C
:1050100053FB401B0228F7D9032001B0F0BD00BFAD
:1050200001207047306900F03801B06A102905D0BE
:1050300018290BD100F00300022807D13068800343
:10504000C9D560680028C6D13CE100BF61683068FE
:1050500000294FD0B1F5A02F44D0B1F5803F5FD1EA
:1050600040F4803062E000BF30684007E06802D55D
:10507000002800F02781316821F0190108433060D1
:10508000FEF71AFB054600BF3068400708D4FEF75C
:1050900013FB401B02284FF00300F5D901B0F0BD0F
:1050A000FEF702FB41F2030188424FD82069716884
:1050B000402821F47C3151D141F4003050E000BF50
:1050C00021F001003060FEF7F7FA0546306840072E
:1050D00047D5FEF7F1FA401B02284FF00300F5D93F
:1050E000DCE700BF40F480203060306840F480305E
:1050F0001CE000BF20F480303060306820F4802055
:105100003060FEF7D9FA0546306880037FF563AF5B
:10511000FEF7D2FA401B64284FF00300F4D9BDE734
:1051200020F480303060306820F480203060FEF75A
:10513000C3FA0546306880033FF54DAFFEF7BCFA71
:10514000401B6428F6D9032001B0F0BD70682169C6
:1051500020F0FE4040EA016002E000BF41EA00307A
:1051600070602078C00654D5306900F03801B06A0C
:10517000082905D0182919D100F00300012815D1FC
:105180003068C00503D5E069802840F09B80FEF7B9
:105190008BFA41F2030188421ED8206A71682028E8
:1051A00021F0F84132D141F0804031E0E06900283F
:1051B000306819D040F080003060FEF77DFA054677
:1051C0003068C005E3D4FEF777FA401B02284FF0A1
:1051D0000300F5D962E700BFF068216A20F07C5037
:1051E00040EA0160F06014E020F080003060FEF7DB
:1051F00063FA05463068C0050BD5FEF75DFA401B23
:1052000002284FF00300F5D948E700BF41EA80606B
:105210007060207800073FD42078800656D420782C
:10522000400769D4656A9DB3306900F038001828DA
:1052300040F0A880012DB16A306B43D001F0030229
:10524000A36A9A423ED1C1F30511E26A914239D173
:105250000146226B6FF35F21013A914232D1C0F3D4
:105260004622616B01398A422CD1C0F30642A16B00
:1052700001398A4226D1C0F30660E16B01398842C8
:1052800020D1706BA16CC0F3CC00814240F034811E
:10529000002001B0F0BD00BF60690028706F41D0F0
:1052A00040F001007067FEF707FA0546706F80074F
:1052B000B2D4FEF701FA401B0228F7D9032001B04F
:1052C000F0BD00BF012001B0F0BD00BFA069002803
:1052D000306845D040F480503060FEF7EDF9054667
:1052E000306880049BD4FEF7E7F9401B0228F7D909
:1052F000032001B0F0BD00BFD6F8000440F4807078
:10530000C6F80004FEF7D8F9054600BFD6F8000439
:10531000C00519D4FEF7D0F9401B6428F6D9032044
:1053200001B0F0BD20F001007067FEF7C5F9054639
:10533000706F80077FF570AFFEF7BEF9401B022843
:105340004FF00300F4D9A9E6A168306F002943D0DB
:10535000052939D0012957D140F001005AE000BF9A
:1053600020F480503060FEF7A7F9054630688004CD
:105370007FF555AFFEF7A0F9401B02284FF0030060
:10538000F4D98BE6306820F080703060FEF794F935
:10539000022D05460CD100BF306880014CD5FEF7C8
:1053A0008BF9401B02284FF00300F5D976E600BFC9
:1053B000306880017FF56CAFFEF77EF9401B022854
:1053C0004FF00300F4D969E640F004003067306F15
:1053D00040F001001EE000BF20F001003067306F98
:1053E00020F004003067FEF767F9054641F2883780
:1053F000306F80077FF516AFFEF75EF9401BB842AD
:105400004FF00300F4D949E620F001003067306F17
:1054100020F004003067FEF74FF9054641F2883767
:10542000306F80073FF5FEAEFEF746F9401BB842ED
:105430004FF00300F4D931E604F12807B06A40F2D6
:10544000F33188438ECF0843591E40EA02104FF4CF
:105450007E426FF35F21B06202EB47204FF4FE0201
:1054600080B2E36B0844A16B02EB01414FF0FE42B6
:1054700001F4FE0102EB0362084402F0FE4108441D
:105480003063F06A4FF6F87120F00100F062706B43
:10549000A26C884340EAC2007063F06A216C20F07D
:1054A0000C000843F062F06A616C20F002000843CF
:1054B000F062F06A40F48030F062F06A40F400304C
:1054C000F062F06A40F48020F062F06A40F001007F
:1054D000F062306840F080703060FEF7EDF804460E
:1054E000306880013FF5D4AEFEF7E6F8001B0228D5
:1054F0004FF00300F4D9D1E5F06A20F00100F0622A
:10550000FEF7DAF80546FEF7D7F8A842FBD0706B35
:105510004FF6F871A26C884340EAC2007063F06AEB
:1055200040F00100F062002001B0F0BD000000007A
:10553000704700000000000070B501680B694E69FB
:105540008A6890F8815034050AD513F0080407D012
:105550008A6942F400628A61BDE8704000F088BA4E
:105560001E4006F06403042B08D1416F04468847AF
:10557000216F2046BDE87040084700BF06F0450394
:10558000012B09D1016F0446884706F0220120460D
:10559000022905D070BD00BF06F02603022B03D1FF
:1055A000416FBDE870400847330711D416F4587FA7
:1055B000F0D0710660D4B1056BD4F10577D4B10693
:1055C00000F18380D0F88410002940F08E80E1E75C
:1055D0000268936943F008039361936943F01003F1
:1055E0009361936943F400639361136923F00803A3
:1055F0001361926812F4404F19D0044602F000FC87
:10560000012184F88110D4F8841039B32046BDE814
:105610007040FFF78DBF00BF0368426E1B6B42F8FE
:10562000043B4266B0F86A20013AA0F86A20B0F85C
:105630006A20002AE1D0C268102AEDD2082A05D3D8
:105640000B8E426E22F8023BEBE700BF026892F835
:105650003020436E1A70426E0132E2E7032D00F0F3
:105660008D80042D00F08480052D7FF493AF2046BB
:10567000BDE8704000F064BB0168D0F8843043F0AE
:105680000403C0F884308B6943F040038B61B1059B
:1056900093D50168D0F8843043F00103C0F884301A
:1056A0008B6943F400738B61F1057FF588AF016866
:1056B000D0F8843043F00803C0F884308B6943F499
:1056C00080738B61B1067FF57DAF0168D0F88430BF
:1056D00043F08003C0F884308B6943F020038B6172
:1056E000D0F8841000293FF455AF016802F440421D
:1056F00040F26B36B2F5404F0B6823F001030B60AC
:105700000B6923EA06020A612AD18A6847F6D16446
:1057100022F440428A60C16FC0F6000469B10546B8
:1057200008460C65FCF738FC0146284629B1D0F83C
:10573000841041F04001C0F88410816F00293FF4CB
:1057400029AF0C6504460846FCF726FC002808BF74
:1057500070BDD4F8840040F04000C4F8840070BDEF
:10576000012180F88110BDE87040FFF7E1BE00BF65
:105770002046BDE8704000F077B900BF2046BDE884
:10578000704000F0C5BA000000284DD02DE9F04F60
:1057900081B043F600040168C4F2000443F2000E35
:1057A00043F6004CA142C4F2010EC4F2000C4FF0CB
:1057B0000002826203D0614518BF714542D1C26BBD
:1057C0000125C368A14203F1080305EB52124FEA19
:1057D000D30303FB02F218BF714527D1102A34D836
:1057E00090F8811031B9002180F88010044600F053
:1057F000ABF82046022180F88110D0E90019D0F8DA
:1058000018800D68B8F1806F25F001050D608D6876
:1058100005F4F81E26D1B9F1000F1BD0B9F5800FA1
:1058200020D1856B25BB19E001207047614518BF69
:10583000082A0AD80CF574439942CFD06145CDD0DF
:10584000CEE700BFC2680F2AB9D9012001B0BDE878
:10585000F08F00BF856BB5F1805F06D10D6845F410
:1058600080550D605FEA492502D44FF0010C0FE02E
:10587000C468072C0AD30D6825F4807C056D45EAC1
:105880000C050D604FF0000C07E000BF4FF0000C5E
:105890000C6824F480740C60C468C769836A47EAA2
:1058A0000E07C26B3B4387681A43B9F1000FD0E97A
:1058B00004BA42EA04028A60426B856B436A42EA98
:1058C0000302036A42EA050242EA0B0242EA0A02C2
:1058D000D0E9126442EA0302836D42EA040242EA1A
:1058E000070242EA060242EA030242EA080242EAE8
:1058F0000902CA600ED00A6DBCF1000F22F001024D
:105900000A6515D1CA68436D22F000421A43CA6085
:105910000EE000BF8A68012363F3CC228A608A68A4
:10592000022363F34A228A600A6D22F001020A65AB
:105930000021C0F88410012180F88110002001B0FE
:10594000BDE8F08F000000002DE9F047B8B0044634
:1059500002A80830B82100253395CDE93655CDE9A8
:105960003455FAF7C0FC43F200012068C4F201018B
:10597000884203D038B0BDE8F08700BF4FF48050B4
:10598000029002A80395FEF77FFB08B1FBF7D8FA57
:1059900044F2E04040F20045C5F60200C5F60205BB
:1059A00033AE4FF002080169002741F480510161D4
:1059B00001694FF0030901F48051019101990168D7
:1059C00041F00801016001684FF0050A01F008018B
:1059D00001910199016841F00201016000683146BE
:1059E00000F00200019001988020339005F50060DE
:1059F000CDF8D0803597CDF8D890CDF8DCA0FDF764
:105A000057FD18203146CDE9330835A880E88006D7
:105A10002846FDF74DFD40F6FC051020C2F200457A
:105A2000C4F202002860262068604020C5E9020711
:105A30004FF48060C5E904072846C5E90677C5E943
:105A40000877FDF719F808B1FBF77AFA232000214F
:105A50000022A567AC63FDF717FF2320FDF700FFC9
:105A600038B0BDE8F087000070470000000000007B
:105A700070470000000000002DE9F0471D46174662
:105A80000E460446D0F80090FDF716FE94F88110FB
:105A900001290BD180460120002E18BF002F01D113
:105AA000BDE8F08794F88000012803D10220BDE80A
:105AB000F08700BF012184F88010032084F8810062
:105AC0000020C4F88400E665A4F86070A4F8627051
:105AD0006066A4F86800A4F86A00A2682067B2F5BE
